{
	"data": {
		"bytecode": {
			"linkReferences": {},
			"object": "608060405234801561000f575f80fd5b506123248061001d5f395ff3fe608060405234801561000f575f80fd5b5060043610610267575f3560e01c80637e7595fe1161014f578063b99abc7d116100c1578063e9830bd811610085578063e9830bd814610677578063efeed4a014610693578063f7c51612146106af578063fa02785e146106cb578063fb1257e6146106e7578063fb7e4c171461070357610267565b8063b99abc7d146105eb578063bc05f10614610607578063d486e9de14610623578063d8e053981461063f578063e6d41e781461065b57610267565b80639c4f31a9116101135780639c4f31a9146105435780639dd85dbf1461055f5780639e7965241461057b5780639fff550814610597578063a1374dc2146105b3578063b9179894146105cf57610267565b80637e7595fe146104b757806383b3d393146104d35780638ec62788146104ef57806399db185d1461050b5780639b66f0971461052757610267565b80633a91d2ba116101e8578063505b0330116101ac578063505b03301461040f578063557f0e631461042b57806359122e4514610447578063675ed828146104635780637ab7eecf1461047f5780637b0fadab1461049b57610267565b80633a91d2ba146103835780634563230c1461039f57806345e2144c146103bb5780634db07a4e146103d75780634db4bc0b146103f357610267565b806325d1857d1161022f57806325d1857d146102f75780632ac0ca03146103135780632fa24c7a1461032f5780632facbfe81461034b57806333104ff71461036757610267565b806307d332441461026b5780631371cf19146102875780631f0da7b4146102a357806321ebd09e146102bf57806324d03a8b146102db575b5f80fd5b61028560048036038101906102809190610abe565b61071f565b005b6102a1600480360381019061029c9190610bdf565b610729565b005b6102bd60048036038101906102b89190610cd5565b61072f565b005b6102d960048036038101906102d49190610db1565b61073a565b005b6102f560048036038101906102f09190610ea5565b610742565b005b610311600480360381019061030c9190611040565b61074c565b005b61032d600480360381019061032891906111e5565b610757565b005b6103496004803603810190610344919061127b565b61075f565b005b61036560048036038101906103609190611325565b610768565b005b610381600480360381019061037c91906113e1565b610770565b005b61039d60048036038101906103989190611631565b61077b565b005b6103b960048036038101906103b49190611752565b610785565b005b6103d560048036038101906103d0919061127b565b61078f565b005b6103f160048036038101906103ec9190610abe565b610798565b005b61040d6004803603810190610408919061127b565b6107a2565b005b6104296004803603810190610424919061181c565b6107ab565b005b6104456004803603810190610440919061127b565b6107b2565b005b610461600480360381019061045c91906118cc565b6107bb565b005b61047d6004803603810190610478919061127b565b6107c7565b005b61049960048036038101906104949190611a15565b6107d0565b005b6104b560048036038101906104b09190611752565b6107d8565b005b6104d160048036038101906104cc919061127b565b6107e2565b005b6104ed60048036038101906104e8919061127b565b6107eb565b005b61050960048036038101906105049190611aab565b6107f4565b005b61052560048036038101906105209190610bdf565b6107ff565b005b610541600480360381019061053c919061181c565b610805565b005b61055d60048036038101906105589190611040565b61080c565b005b61057960048036038101906105749190611bfb565b610817565b005b61059560048036038101906105909190610bdf565b610823565b005b6105b160048036038101906105ac9190611752565b610829565b005b6105cd60048036038101906105c89190610bdf565b610833565b005b6105e960048036038101906105e49190610bdf565b610839565b005b61060560048036038101906106009190611aab565b61083f565b005b610621600480360381019061061c9190611a15565b61084a565b005b61063d60048036038101906106389190611d7c565b610852565b005b61065960048036038101906106549190611752565b61085d565b005b61067560048036038101906106709190610db1565b610867565b005b610691600480360381019061068c919061127b565b61086f565b005b6106ad60048036038101906106a89190611a15565b610878565b005b6106c960048036038101906106c49190611f05565b610880565b005b6106e560048036038101906106e09190612002565b61088c565b005b61070160048036038101906106fc91906120e7565b610898565b005b61071d60048036038101906107189190612191565b6108a1565b005b5050505050505050565b50505050565b505050505050505050565b505050505050565b5050505050505050565b505050505050505050565b505050505050565b50505050505050565b505050505050565b505050505050505050565b5050505050505050565b5050505050505050565b50505050505050565b5050505050505050565b50505050505050565b5050505050565b50505050505050565b50505050505050505050565b50505050505050565b505050505050565b5050505050505050565b50505050505050565b50505050505050565b505050505050505050565b50505050565b5050505050565b505050505050505050565b50505050505050505050565b50505050565b5050505050505050565b50505050565b50505050565b505050505050505050565b505050505050565b505050505050505050565b5050505050505050565b505050505050565b50505050505050565b505050505050565b50505050505050505050565b50505050505050505050565b50505050505050565b5050505050505050505050565b5f604051905090565b5f80fd5b5f80fd5b5f60ff82169050919050565b6108d4816108bf565b81146108de575f80fd5b50565b5f813590506108ef816108cb565b92915050565b5f819050919050565b610907816108f5565b8114610911575f80fd5b50565b5f81359050610922816108fe565b92915050565b5f73ffffffffffffffffffffffffffffffffffffffff82169050919050565b5f61095182610928565b9050919050565b61096181610947565b811461096b575f80fd5b50565b5f8135905061097c81610958565b92915050565b5f80fd5b5f80fd5b5f601f19601f8301169050919050565b7f4e487b71000000000000000000000000000000000000000000000000000000005f52604160045260245ffd5b6109d08261098a565b810181811067ffffffffffffffff821117156109ef576109ee61099a565b5b80604052505050565b5f610a016108ae565b9050610a0d82826109c7565b919050565b5f67ffffffffffffffff821115610a2c57610a2b61099a565b5b610a358261098a565b9050602081019050919050565b828183375f83830152505050565b5f610a62610a5d84610a12565b6109f8565b905082815260208101848484011115610a7e57610a7d610986565b5b610a89848285610a42565b509392505050565b5f82601f830112610aa557610aa4610982565b5b8135610ab5848260208601610a50565b91505092915050565b5f805f805f805f80610100898b031215610adb57610ada6108b7565b5b5f610ae88b828c016108e1565b9850506020610af98b828c01610914565b9750506040610b0a8b828c01610914565b9650506060610b1b8b828c0161096e565b955050608089013567ffffffffffffffff811115610b3c57610b3b6108bb565b5b610b488b828c01610a91565b94505060a089013567ffffffffffffffff811115610b6957610b686108bb565b5b610b758b828c01610a91565b93505060c089013567ffffffffffffffff811115610b9657610b956108bb565b5b610ba28b828c01610a91565b92505060e089013567ffffffffffffffff811115610bc357610bc26108bb565b5b610bcf8b828c01610a91565b9150509295985092959890939650565b5f805f8060808587031215610bf757610bf66108b7565b5b5f610c04878288016108e1565b9450506020610c1587828801610914565b9350506040610c2687828801610914565b9250506060610c378782880161096e565b91505092959194509250565b5f8115159050919050565b610c5781610c43565b8114610c61575f80fd5b50565b5f81359050610c7281610c4e565b92915050565b5f80fd5b5f80fd5b5f8083601f840112610c9557610c94610982565b5b8235905067ffffffffffffffff811115610cb257610cb1610c78565b5b602083019150836001820283011115610cce57610ccd610c7c565b5b9250929050565b5f805f805f805f805f60e08a8c031215610cf257610cf16108b7565b5b5f610cff8c828d016108e1565b9950506020610d108c828d01610914565b9850506040610d218c828d01610914565b9750506060610d328c828d0161096e565b9650506080610d438c828d01610c64565b95505060a08a013567ffffffffffffffff811115610d6457610d636108bb565b5b610d708c828d01610c80565b945094505060c08a013567ffffffffffffffff811115610d9357610d926108bb565b5b610d9f8c828d01610c80565b92509250509295985092959850929598565b5f805f805f8060c08789031215610dcb57610dca6108b7565b5b5f610dd889828a016108e1565b9650506020610de989828a01610914565b9550506040610dfa89828a01610914565b9450506060610e0b89828a0161096e565b935050608087013567ffffffffffffffff811115610e2c57610e2b6108bb565b5b610e3889828a01610a91565b92505060a087013567ffffffffffffffff811115610e5957610e586108bb565b5b610e6589828a01610a91565b9150509295509295509295565b5f819050919050565b610e8481610e72565b8114610e8e575f80fd5b50565b5f81359050610e9f81610e7b565b92915050565b5f805f805f805f8060e0898b031215610ec157610ec06108b7565b5b5f610ece8b828c016108e1565b9850506020610edf8b828c01610914565b9750506040610ef08b828c01610914565b9650506060610f018b828c0161096e565b9550506080610f128b828c01610e91565b94505060a0610f238b828c01610e91565b93505060c089013567ffffffffffffffff811115610f4457610f436108bb565b5b610f508b828c01610c80565b92509250509295985092959890939650565b5f67ffffffffffffffff821115610f7c57610f7b61099a565b5b602082029050602081019050919050565b5f610f9f610f9a84610f62565b6109f8565b90508083825260208201905060208402830185811115610fc257610fc1610c7c565b5b835b8181101561100957803567ffffffffffffffff811115610fe757610fe6610982565b5b808601610ff48982610a91565b85526020850194505050602081019050610fc4565b5050509392505050565b5f82601f83011261102757611026610982565b5b8135611037848260208601610f8d565b91505092915050565b5f805f805f805f805f6101208a8c03121561105e5761105d6108b7565b5b5f61106b8c828d016108e1565b995050602061107c8c828d01610914565b985050604061108d8c828d01610914565b975050606061109e8c828d0161096e565b96505060808a013567ffffffffffffffff8111156110bf576110be6108bb565b5b6110cb8c828d01610a91565b95505060a08a013567ffffffffffffffff8111156110ec576110eb6108bb565b5b6110f88c828d01610a91565b94505060c08a013567ffffffffffffffff811115611119576111186108bb565b5b6111258c828d01610a91565b93505060e08a013567ffffffffffffffff811115611146576111456108bb565b5b6111528c828d01610a91565b9250506101008a013567ffffffffffffffff811115611174576111736108bb565b5b6111808c828d01611013565b9150509295985092959850929598565b5f8083601f8401126111a5576111a4610982565b5b8235905067ffffffffffffffff8111156111c2576111c1610c78565b5b6020830191508360208202830111156111de576111dd610c7c565b5b9250929050565b5f805f805f8060a087890312156111ff576111fe6108b7565b5b5f61120c89828a016108e1565b965050602061121d89828a01610914565b955050604061122e89828a01610914565b945050606061123f89828a0161096e565b935050608087013567ffffffffffffffff8111156112605761125f6108bb565b5b61126c89828a01611190565b92509250509295509295509295565b5f805f805f805f60c0888a031215611296576112956108b7565b5b5f6112a38a828b016108e1565b97505060206112b48a828b01610914565b96505060406112c58a828b01610914565b95505060606112d68a828b0161096e565b94505060806112e78a828b01610e91565b93505060a088013567ffffffffffffffff811115611308576113076108bb565b5b6113148a828b01610c80565b925092505092959891949750929550565b5f805f805f8060c0878903121561133f5761133e6108b7565b5b5f61134c89828a016108e1565b965050602061135d89828a01610914565b955050604061136e89828a01610914565b945050606061137f89828a0161096e565b935050608061139089828a01610e91565b92505060a06113a189828a01610c64565b9150509295509295509295565b5f819050919050565b6113c0816113ae565b81146113ca575f80fd5b50565b5f813590506113db816113b7565b92915050565b5f805f805f805f805f6101008a8c0312156113ff576113fe6108b7565b5b5f61140c8c828d016108e1565b995050602061141d8c828d01610914565b985050604061142e8c828d01610914565b975050606061143f8c828d0161096e565b96505060806114508c828d016113cd565b95505060a06114618c828d016113cd565b94505060c06114728c828d016113cd565b93505060e08a013567ffffffffffffffff811115611493576114926108bb565b5b61149f8c828d01610c80565b92509250509295985092959850929598565b5f67ffffffffffffffff8211156114cb576114ca61099a565b5b602082029050602081019050919050565b5f6114ee6114e9846114b1565b6109f8565b9050808382526020820190506020840283018581111561151157611510610c7c565b5b835b8181101561153a57806115268882610c64565b845260208401935050602081019050611513565b5050509392505050565b5f82601f83011261155857611557610982565b5b81356115688482602086016114dc565b91505092915050565b5f67ffffffffffffffff82111561158b5761158a61099a565b5b602082029050602081019050919050565b5f6115ae6115a984611571565b6109f8565b905080838252602082019050602084028301858111156115d1576115d0610c7c565b5b835b818110156115fa57806115e68882610e91565b8452602084019350506020810190506115d3565b5050509392505050565b5f82601f83011261161857611617610982565b5b813561162884826020860161159c565b91505092915050565b5f805f805f805f80610100898b03121561164e5761164d6108b7565b5b5f61165b8b828c016108e1565b985050602061166c8b828c01610914565b975050604061167d8b828c01610914565b965050606061168e8b828c0161096e565b955050608089013567ffffffffffffffff8111156116af576116ae6108bb565b5b6116bb8b828c01611544565b94505060a089013567ffffffffffffffff8111156116dc576116db6108bb565b5b6116e88b828c01611604565b93505060c089013567ffffffffffffffff811115611709576117086108bb565b5b6117158b828c01611013565b92505060e089013567ffffffffffffffff811115611736576117356108bb565b5b6117428b828c01611013565b9150509295985092959890939650565b5f805f805f805f8060c0898b03121561176e5761176d6108b7565b5b5f61177b8b828c016108e1565b985050602061178c8b828c01610914565b975050604061179d8b828c01610914565b96505060606117ae8b828c0161096e565b955050608089013567ffffffffffffffff8111156117cf576117ce6108bb565b5b6117db8b828c01610c80565b945094505060a089013567ffffffffffffffff8111156117fe576117fd6108bb565b5b61180a8b828c01610c80565b92509250509295985092959890939650565b5f805f805f60a08688031215611835576118346108b7565b5b5f611842888289016108e1565b955050602061185388828901610914565b945050604061186488828901610914565b93505060606118758882890161096e565b925050608061188688828901610e91565b9150509295509295909350565b5f63ffffffff82169050919050565b6118ab81611893565b81146118b5575f80fd5b50565b5f813590506118c6816118a2565b92915050565b5f805f805f805f805f806101408b8d0312156118eb576118ea6108b7565b5b5f6118f88d828e016108e1565b9a505060206119098d828e01610914565b995050604061191a8d828e01610914565b985050606061192b8d828e0161096e565b975050608061193c8d828e01610c64565b96505060a061194d8d828e016118b8565b95505060c08b013567ffffffffffffffff81111561196e5761196d6108bb565b5b61197a8d828e01610a91565b94505060e08b013567ffffffffffffffff81111561199b5761199a6108bb565b5b6119a78d828e01610a91565b9350506101008b013567ffffffffffffffff8111156119c9576119c86108bb565b5b6119d58d828e01610a91565b9250506101208b013567ffffffffffffffff8111156119f7576119f66108bb565b5b611a038d828e01611013565b9150509295989b9194979a5092959850565b5f805f805f8060a08789031215611a2f57611a2e6108b7565b5b5f611a3c89828a016108e1565b9650506020611a4d89828a01610914565b9550506040611a5e89828a01610914565b9450506060611a6f89828a0161096e565b935050608087013567ffffffffffffffff811115611a9057611a8f6108bb565b5b611a9c89828a01610c80565b92509250509295509295509295565b5f805f805f805f805f6101208a8c031215611ac957611ac86108b7565b5b5f611ad68c828d016108e1565b9950506020611ae78c828d01610914565b9850506040611af88c828d01610914565b9750506060611b098c828d0161096e565b96505060808a013567ffffffffffffffff811115611b2a57611b296108bb565b5b611b368c828d01610a91565b95505060a08a013567ffffffffffffffff811115611b5757611b566108bb565b5b611b638c828d01610a91565b94505060c08a013567ffffffffffffffff811115611b8457611b836108bb565b5b611b908c828d01610a91565b93505060e08a013567ffffffffffffffff811115611bb157611bb06108bb565b5b611bbd8c828d01610a91565b9250506101008a013567ffffffffffffffff811115611bdf57611bde6108bb565b5b611beb8c828d01610a91565b9150509295985092959850929598565b5f805f805f805f805f806101408b8d031215611c1a57611c196108b7565b5b5f611c278d828e016108e1565b9a50506020611c388d828e01610914565b9950506040611c498d828e01610914565b9850506060611c5a8d828e0161096e565b97505060808b013567ffffffffffffffff811115611c7b57611c7a6108bb565b5b611c878d828e01610a91565b96505060a08b013567ffffffffffffffff811115611ca857611ca76108bb565b5b611cb48d828e01610a91565b95505060c08b013567ffffffffffffffff811115611cd557611cd46108bb565b5b611ce18d828e01610a91565b94505060e08b013567ffffffffffffffff811115611d0257611d016108bb565b5b611d0e8d828e01610a91565b9350506101008b013567ffffffffffffffff811115611d3057611d2f6108bb565b5b611d3c8d828e01610a91565b9250506101208b013567ffffffffffffffff811115611d5e57611d5d6108bb565b5b611d6a8d828e01610a91565b9150509295989b9194979a5092959850565b5f805f805f805f805f6101208a8c031215611d9a57611d996108b7565b5b5f611da78c828d016108e1565b9950506020611db88c828d01610914565b9850506040611dc98c828d01610914565b9750506060611dda8c828d0161096e565b9650506080611deb8c828d01610e91565b95505060a08a013567ffffffffffffffff811115611e0c57611e0b6108bb565b5b611e188c828d01610a91565b94505060c08a013567ffffffffffffffff811115611e3957611e386108bb565b5b611e458c828d01610a91565b93505060e08a013567ffffffffffffffff811115611e6657611e656108bb565b5b611e728c828d01611544565b9250506101008a013567ffffffffffffffff811115611e9457611e936108bb565b5b611ea08c828d01611013565b9150509295985092959850929598565b5f8083601f840112611ec557611ec4610982565b5b8235905067ffffffffffffffff811115611ee257611ee1610c78565b5b602083019150836020820283011115611efe57611efd610c7c565b5b9250929050565b5f805f805f805f805f8060e08b8d031215611f2357611f226108b7565b5b5f611f308d828e016108e1565b9a50506020611f418d828e01610914565b9950506040611f528d828e01610914565b9850506060611f638d828e0161096e565b97505060808b013567ffffffffffffffff811115611f8457611f836108bb565b5b611f908d828e01610c80565b965096505060a08b013567ffffffffffffffff811115611fb357611fb26108bb565b5b611fbf8d828e01610c80565b945094505060c08b013567ffffffffffffffff811115611fe257611fe16108bb565b5b611fee8d828e01611eb0565b92509250509295989b9194979a5092959850565b5f805f805f805f805f806101208b8d031215612021576120206108b7565b5b5f61202e8d828e016108e1565b9a5050602061203f8d828e01610914565b99505060406120508d828e01610914565b98505060606120618d828e0161096e565b97505060806120728d828e01610e91565b96505060a06120838d828e01610e91565b95505060c06120948d828e01610e91565b94505060e06120a58d828e01610e91565b9350506101008b013567ffffffffffffffff8111156120c7576120c66108bb565b5b6120d38d828e01610c80565b92509250509295989b9194979a5092959850565b5f805f805f805f60c0888a031215612102576121016108b7565b5b5f61210f8a828b016108e1565b97505060206121208a828b01610914565b96505060406121318a828b01610914565b95505060606121428a828b0161096e565b94505060806121538a828b01610c64565b93505060a088013567ffffffffffffffff811115612174576121736108bb565b5b6121808a828b01611190565b925092505092959891949750929550565b5f805f805f805f805f805f6101608c8e0312156121b1576121b06108b7565b5b5f6121be8e828f016108e1565b9b505060206121cf8e828f01610914565b9a505060406121e08e828f01610914565b99505060606121f18e828f0161096e565b98505060806122028e828f01610c64565b97505060a06122138e828f01610c64565b96505060c06122248e828f01610c64565b95505060e08c013567ffffffffffffffff811115612245576122446108bb565b5b6122518e828f01610a91565b9450506101008c013567ffffffffffffffff811115612273576122726108bb565b5b61227f8e828f01610a91565b9350506101208c013567ffffffffffffffff8111156122a1576122a06108bb565b5b6122ad8e828f01610a91565b9250506101408c013567ffffffffffffffff8111156122cf576122ce6108bb565b5b6122db8e828f01610a91565b9150509295989b509295989b909396995056fea26469706673582212204a6a6271b592829e5f9eef5d6e3e7ff34d6b7fd9386fef5610051ca791b0d56964736f6c63430008160033",
			"opcodes": "PUSH1 0x80 PUSH1 0x40 MSTORE CALLVALUE DUP1 ISZERO PUSH2 0xF JUMPI PUSH0 DUP1 REVERT JUMPDEST POP PUSH2 0x2324 DUP1 PUSH2 0x1D PUSH0 CODECOPY PUSH0 RETURN INVALID PUSH1 0x80 PUSH1 0x40 MSTORE CALLVALUE DUP1 ISZERO PUSH2 0xF JUMPI PUSH0 DUP1 REVERT JUMPDEST POP PUSH1 0x4 CALLDATASIZE LT PUSH2 0x267 JUMPI PUSH0 CALLDATALOAD PUSH1 0xE0 SHR DUP1 PUSH4 0x7E7595FE GT PUSH2 0x14F JUMPI DUP1 PUSH4 0xB99ABC7D GT PUSH2 0xC1 JUMPI DUP1 PUSH4 0xE9830BD8 GT PUSH2 0x85 JUMPI DUP1 PUSH4 0xE9830BD8 EQ PUSH2 0x677 JUMPI DUP1 PUSH4 0xEFEED4A0 EQ PUSH2 0x693 JUMPI DUP1 PUSH4 0xF7C51612 EQ PUSH2 0x6AF JUMPI DUP1 PUSH4 0xFA02785E EQ PUSH2 0x6CB JUMPI DUP1 PUSH4 0xFB1257E6 EQ PUSH2 0x6E7 JUMPI DUP1 PUSH4 0xFB7E4C17 EQ PUSH2 0x703 JUMPI PUSH2 0x267 JUMP JUMPDEST DUP1 PUSH4 0xB99ABC7D EQ PUSH2 0x5EB JUMPI DUP1 PUSH4 0xBC05F106 EQ PUSH2 0x607 JUMPI DUP1 PUSH4 0xD486E9DE EQ PUSH2 0x623 JUMPI DUP1 PUSH4 0xD8E05398 EQ PUSH2 0x63F JUMPI DUP1 PUSH4 0xE6D41E78 EQ PUSH2 0x65B JUMPI PUSH2 0x267 JUMP JUMPDEST DUP1 PUSH4 0x9C4F31A9 GT PUSH2 0x113 JUMPI DUP1 PUSH4 0x9C4F31A9 EQ PUSH2 0x543 JUMPI DUP1 PUSH4 0x9DD85DBF EQ PUSH2 0x55F JUMPI DUP1 PUSH4 0x9E796524 EQ PUSH2 0x57B JUMPI DUP1 PUSH4 0x9FFF5508 EQ PUSH2 0x597 JUMPI DUP1 PUSH4 0xA1374DC2 EQ PUSH2 0x5B3 JUMPI DUP1 PUSH4 0xB9179894 EQ PUSH2 0x5CF JUMPI PUSH2 0x267 JUMP JUMPDEST DUP1 PUSH4 0x7E7595FE EQ PUSH2 0x4B7 JUMPI DUP1 PUSH4 0x83B3D393 EQ PUSH2 0x4D3 JUMPI DUP1 PUSH4 0x8EC62788 EQ PUSH2 0x4EF JUMPI DUP1 PUSH4 0x99DB185D EQ PUSH2 0x50B JUMPI DUP1 PUSH4 0x9B66F097 EQ PUSH2 0x527 JUMPI PUSH2 0x267 JUMP JUMPDEST DUP1 PUSH4 0x3A91D2BA GT PUSH2 0x1E8 JUMPI DUP1 PUSH4 0x505B0330 GT PUSH2 0x1AC JUMPI DUP1 PUSH4 0x505B0330 EQ PUSH2 0x40F JUMPI DUP1 PUSH4 0x557F0E63 EQ PUSH2 0x42B JUMPI DUP1 PUSH4 0x59122E45 EQ PUSH2 0x447 JUMPI DUP1 PUSH4 0x675ED828 EQ PUSH2 0x463 JUMPI DUP1 PUSH4 0x7AB7EECF EQ PUSH2 0x47F JUMPI DUP1 PUSH4 0x7B0FADAB EQ PUSH2 0x49B JUMPI PUSH2 0x267 JUMP JUMPDEST DUP1 PUSH4 0x3A91D2BA EQ PUSH2 0x383 JUMPI DUP1 PUSH4 0x4563230C EQ PUSH2 0x39F JUMPI DUP1 PUSH4 0x45E2144C EQ PUSH2 0x3BB JUMPI DUP1 PUSH4 0x4DB07A4E EQ PUSH2 0x3D7 JUMPI DUP1 PUSH4 0x4DB4BC0B EQ PUSH2 0x3F3 JUMPI PUSH2 0x267 JUMP JUMPDEST DUP1 PUSH4 0x25D1857D GT PUSH2 0x22F JUMPI DUP1 PUSH4 0x25D1857D EQ PUSH2 0x2F7 JUMPI DUP1 PUSH4 0x2AC0CA03 EQ PUSH2 0x313 JUMPI DUP1 PUSH4 0x2FA24C7A EQ PUSH2 0x32F JUMPI DUP1 PUSH4 0x2FACBFE8 EQ PUSH2 0x34B JUMPI DUP1 PUSH4 0x33104FF7 EQ PUSH2 0x367 JUMPI PUSH2 0x267 JUMP JUMPDEST DUP1 PUSH4 0x7D33244 EQ PUSH2 0x26B JUMPI DUP1 PUSH4 0x1371CF19 EQ PUSH2 0x287 JUMPI DUP1 PUSH4 0x1F0DA7B4 EQ PUSH2 0x2A3 JUMPI DUP1 PUSH4 0x21EBD09E EQ PUSH2 0x2BF JUMPI DUP1 PUSH4 0x24D03A8B EQ PUSH2 0x2DB JUMPI JUMPDEST PUSH0 DUP1 REVERT JUMPDEST PUSH2 0x285 PUSH1 0x4 DUP1 CALLDATASIZE SUB DUP2 ADD SWAP1 PUSH2 0x280 SWAP2 SWAP1 PUSH2 0xABE JUMP JUMPDEST PUSH2 0x71F JUMP JUMPDEST STOP JUMPDEST PUSH2 0x2A1 PUSH1 0x4 DUP1 CALLDATASIZE SUB DUP2 ADD SWAP1 PUSH2 0x29C SWAP2 SWAP1 PUSH2 0xBDF JUMP JUMPDEST PUSH2 0x729 JUMP JUMPDEST STOP JUMPDEST PUSH2 0x2BD PUSH1 0x4 DUP1 CALLDATASIZE SUB DUP2 ADD SWAP1 PUSH2 0x2B8 SWAP2 SWAP1 PUSH2 0xCD5 JUMP JUMPDEST PUSH2 0x72F JUMP JUMPDEST STOP JUMPDEST PUSH2 0x2D9 PUSH1 0x4 DUP1 CALLDATASIZE SUB DUP2 ADD SWAP1 PUSH2 0x2D4 SWAP2 SWAP1 PUSH2 0xDB1 JUMP JUMPDEST PUSH2 0x73A JUMP JUMPDEST STOP JUMPDEST PUSH2 0x2F5 PUSH1 0x4 DUP1 CALLDATASIZE SUB DUP2 ADD SWAP1 PUSH2 0x2F0 SWAP2 SWAP1 PUSH2 0xEA5 JUMP JUMPDEST PUSH2 0x742 JUMP JUMPDEST STOP JUMPDEST PUSH2 0x311 PUSH1 0x4 DUP1 CALLDATASIZE SUB DUP2 ADD SWAP1 PUSH2 0x30C SWAP2 SWAP1 PUSH2 0x1040 JUMP JUMPDEST PUSH2 0x74C JUMP JUMPDEST STOP JUMPDEST PUSH2 0x32D PUSH1 0x4 DUP1 CALLDATASIZE SUB DUP2 ADD SWAP1 PUSH2 0x328 SWAP2 SWAP1 PUSH2 0x11E5 JUMP JUMPDEST PUSH2 0x757 JUMP JUMPDEST STOP JUMPDEST PUSH2 0x349 PUSH1 0x4 DUP1 CALLDATASIZE SUB DUP2 ADD SWAP1 PUSH2 0x344 SWAP2 SWAP1 PUSH2 0x127B JUMP JUMPDEST PUSH2 0x75F JUMP JUMPDEST STOP JUMPDEST PUSH2 0x365 PUSH1 0x4 DUP1 CALLDATASIZE SUB DUP2 ADD SWAP1 PUSH2 0x360 SWAP2 SWAP1 PUSH2 0x1325 JUMP JUMPDEST PUSH2 0x768 JUMP JUMPDEST STOP JUMPDEST PUSH2 0x381 PUSH1 0x4 DUP1 CALLDATASIZE SUB DUP2 ADD SWAP1 PUSH2 0x37C SWAP2 SWAP1 PUSH2 0x13E1 JUMP JUMPDEST PUSH2 0x770 JUMP JUMPDEST STOP JUMPDEST PUSH2 0x39D PUSH1 0x4 DUP1 CALLDATASIZE SUB DUP2 ADD SWAP1 PUSH2 0x398 SWAP2 SWAP1 PUSH2 0x1631 JUMP JUMPDEST PUSH2 0x77B JUMP JUMPDEST STOP JUMPDEST PUSH2 0x3B9 PUSH1 0x4 DUP1 CALLDATASIZE SUB DUP2 ADD SWAP1 PUSH2 0x3B4 SWAP2 SWAP1 PUSH2 0x1752 JUMP JUMPDEST PUSH2 0x785 JUMP JUMPDEST STOP JUMPDEST PUSH2 0x3D5 PUSH1 0x4 DUP1 CALLDATASIZE SUB DUP2 ADD SWAP1 PUSH2 0x3D0 SWAP2 SWAP1 PUSH2 0x127B JUMP JUMPDEST PUSH2 0x78F JUMP JUMPDEST STOP JUMPDEST PUSH2 0x3F1 PUSH1 0x4 DUP1 CALLDATASIZE SUB DUP2 ADD SWAP1 PUSH2 0x3EC SWAP2 SWAP1 PUSH2 0xABE JUMP JUMPDEST PUSH2 0x798 JUMP JUMPDEST STOP JUMPDEST PUSH2 0x40D PUSH1 0x4 DUP1 CALLDATASIZE SUB DUP2 ADD SWAP1 PUSH2 0x408 SWAP2 SWAP1 PUSH2 0x127B JUMP JUMPDEST PUSH2 0x7A2 JUMP JUMPDEST STOP JUMPDEST PUSH2 0x429 PUSH1 0x4 DUP1 CALLDATASIZE SUB DUP2 ADD SWAP1 PUSH2 0x424 SWAP2 SWAP1 PUSH2 0x181C JUMP JUMPDEST PUSH2 0x7AB JUMP JUMPDEST STOP JUMPDEST PUSH2 0x445 PUSH1 0x4 DUP1 CALLDATASIZE SUB DUP2 ADD SWAP1 PUSH2 0x440 SWAP2 SWAP1 PUSH2 0x127B JUMP JUMPDEST PUSH2 0x7B2 JUMP JUMPDEST STOP JUMPDEST PUSH2 0x461 PUSH1 0x4 DUP1 CALLDATASIZE SUB DUP2 ADD SWAP1 PUSH2 0x45C SWAP2 SWAP1 PUSH2 0x18CC JUMP JUMPDEST PUSH2 0x7BB JUMP JUMPDEST STOP JUMPDEST PUSH2 0x47D PUSH1 0x4 DUP1 CALLDATASIZE SUB DUP2 ADD SWAP1 PUSH2 0x478 SWAP2 SWAP1 PUSH2 0x127B JUMP JUMPDEST PUSH2 0x7C7 JUMP JUMPDEST STOP JUMPDEST PUSH2 0x499 PUSH1 0x4 DUP1 CALLDATASIZE SUB DUP2 ADD SWAP1 PUSH2 0x494 SWAP2 SWAP1 PUSH2 0x1A15 JUMP JUMPDEST PUSH2 0x7D0 JUMP JUMPDEST STOP JUMPDEST PUSH2 0x4B5 PUSH1 0x4 DUP1 CALLDATASIZE SUB DUP2 ADD SWAP1 PUSH2 0x4B0 SWAP2 SWAP1 PUSH2 0x1752 JUMP JUMPDEST PUSH2 0x7D8 JUMP JUMPDEST STOP JUMPDEST PUSH2 0x4D1 PUSH1 0x4 DUP1 CALLDATASIZE SUB DUP2 ADD SWAP1 PUSH2 0x4CC SWAP2 SWAP1 PUSH2 0x127B JUMP JUMPDEST PUSH2 0x7E2 JUMP JUMPDEST STOP JUMPDEST PUSH2 0x4ED PUSH1 0x4 DUP1 CALLDATASIZE SUB DUP2 ADD SWAP1 PUSH2 0x4E8 SWAP2 SWAP1 PUSH2 0x127B JUMP JUMPDEST PUSH2 0x7EB JUMP JUMPDEST STOP JUMPDEST PUSH2 0x509 PUSH1 0x4 DUP1 CALLDATASIZE SUB DUP2 ADD SWAP1 PUSH2 0x504 SWAP2 SWAP1 PUSH2 0x1AAB JUMP JUMPDEST PUSH2 0x7F4 JUMP JUMPDEST STOP JUMPDEST PUSH2 0x525 PUSH1 0x4 DUP1 CALLDATASIZE SUB DUP2 ADD SWAP1 PUSH2 0x520 SWAP2 SWAP1 PUSH2 0xBDF JUMP JUMPDEST PUSH2 0x7FF JUMP JUMPDEST STOP JUMPDEST PUSH2 0x541 PUSH1 0x4 DUP1 CALLDATASIZE SUB DUP2 ADD SWAP1 PUSH2 0x53C SWAP2 SWAP1 PUSH2 0x181C JUMP JUMPDEST PUSH2 0x805 JUMP JUMPDEST STOP JUMPDEST PUSH2 0x55D PUSH1 0x4 DUP1 CALLDATASIZE SUB DUP2 ADD SWAP1 PUSH2 0x558 SWAP2 SWAP1 PUSH2 0x1040 JUMP JUMPDEST PUSH2 0x80C JUMP JUMPDEST STOP JUMPDEST PUSH2 0x579 PUSH1 0x4 DUP1 CALLDATASIZE SUB DUP2 ADD SWAP1 PUSH2 0x574 SWAP2 SWAP1 PUSH2 0x1BFB JUMP JUMPDEST PUSH2 0x817 JUMP JUMPDEST STOP JUMPDEST PUSH2 0x595 PUSH1 0x4 DUP1 CALLDATASIZE SUB DUP2 ADD SWAP1 PUSH2 0x590 SWAP2 SWAP1 PUSH2 0xBDF JUMP JUMPDEST PUSH2 0x823 JUMP JUMPDEST STOP JUMPDEST PUSH2 0x5B1 PUSH1 0x4 DUP1 CALLDATASIZE SUB DUP2 ADD SWAP1 PUSH2 0x5AC SWAP2 SWAP1 PUSH2 0x1752 JUMP JUMPDEST PUSH2 0x829 JUMP JUMPDEST STOP JUMPDEST PUSH2 0x5CD PUSH1 0x4 DUP1 CALLDATASIZE SUB DUP2 ADD SWAP1 PUSH2 0x5C8 SWAP2 SWAP1 PUSH2 0xBDF JUMP JUMPDEST PUSH2 0x833 JUMP JUMPDEST STOP JUMPDEST PUSH2 0x5E9 PUSH1 0x4 DUP1 CALLDATASIZE SUB DUP2 ADD SWAP1 PUSH2 0x5E4 SWAP2 SWAP1 PUSH2 0xBDF JUMP JUMPDEST PUSH2 0x839 JUMP JUMPDEST STOP JUMPDEST PUSH2 0x605 PUSH1 0x4 DUP1 CALLDATASIZE SUB DUP2 ADD SWAP1 PUSH2 0x600 SWAP2 SWAP1 PUSH2 0x1AAB JUMP JUMPDEST PUSH2 0x83F JUMP JUMPDEST STOP JUMPDEST PUSH2 0x621 PUSH1 0x4 DUP1 CALLDATASIZE SUB DUP2 ADD SWAP1 PUSH2 0x61C SWAP2 SWAP1 PUSH2 0x1A15 JUMP JUMPDEST PUSH2 0x84A JUMP JUMPDEST STOP JUMPDEST PUSH2 0x63D PUSH1 0x4 DUP1 CALLDATASIZE SUB DUP2 ADD SWAP1 PUSH2 0x638 SWAP2 SWAP1 PUSH2 0x1D7C JUMP JUMPDEST PUSH2 0x852 JUMP JUMPDEST STOP JUMPDEST PUSH2 0x659 PUSH1 0x4 DUP1 CALLDATASIZE SUB DUP2 ADD SWAP1 PUSH2 0x654 SWAP2 SWAP1 PUSH2 0x1752 JUMP JUMPDEST PUSH2 0x85D JUMP JUMPDEST STOP JUMPDEST PUSH2 0x675 PUSH1 0x4 DUP1 CALLDATASIZE SUB DUP2 ADD SWAP1 PUSH2 0x670 SWAP2 SWAP1 PUSH2 0xDB1 JUMP JUMPDEST PUSH2 0x867 JUMP JUMPDEST STOP JUMPDEST PUSH2 0x691 PUSH1 0x4 DUP1 CALLDATASIZE SUB DUP2 ADD SWAP1 PUSH2 0x68C SWAP2 SWAP1 PUSH2 0x127B JUMP JUMPDEST PUSH2 0x86F JUMP JUMPDEST STOP JUMPDEST PUSH2 0x6AD PUSH1 0x4 DUP1 CALLDATASIZE SUB DUP2 ADD SWAP1 PUSH2 0x6A8 SWAP2 SWAP1 PUSH2 0x1A15 JUMP JUMPDEST PUSH2 0x878 JUMP JUMPDEST STOP JUMPDEST PUSH2 0x6C9 PUSH1 0x4 DUP1 CALLDATASIZE SUB DUP2 ADD SWAP1 PUSH2 0x6C4 SWAP2 SWAP1 PUSH2 0x1F05 JUMP JUMPDEST PUSH2 0x880 JUMP JUMPDEST STOP JUMPDEST PUSH2 0x6E5 PUSH1 0x4 DUP1 CALLDATASIZE SUB DUP2 ADD SWAP1 PUSH2 0x6E0 SWAP2 SWAP1 PUSH2 0x2002 JUMP JUMPDEST PUSH2 0x88C JUMP JUMPDEST STOP JUMPDEST PUSH2 0x701 PUSH1 0x4 DUP1 CALLDATASIZE SUB DUP2 ADD SWAP1 PUSH2 0x6FC SWAP2 SWAP1 PUSH2 0x20E7 JUMP JUMPDEST PUSH2 0x898 JUMP JUMPDEST STOP JUMPDEST PUSH2 0x71D PUSH1 0x4 DUP1 CALLDATASIZE SUB DUP2 ADD SWAP1 PUSH2 0x718 SWAP2 SWAP1 PUSH2 0x2191 JUMP JUMPDEST PUSH2 0x8A1 JUMP JUMPDEST STOP JUMPDEST POP POP POP POP POP POP POP POP JUMP JUMPDEST POP POP POP POP JUMP JUMPDEST POP POP POP POP POP POP POP POP POP JUMP JUMPDEST POP POP POP POP POP POP JUMP JUMPDEST POP POP POP POP POP POP POP POP JUMP JUMPDEST POP POP POP POP POP POP POP POP POP JUMP JUMPDEST POP POP POP POP POP POP JUMP JUMPDEST POP POP POP POP POP POP POP JUMP JUMPDEST POP POP POP POP POP POP JUMP JUMPDEST POP POP POP POP POP POP POP POP POP JUMP JUMPDEST POP POP POP POP POP POP POP POP JUMP JUMPDEST POP POP POP POP POP POP POP POP JUMP JUMPDEST POP POP POP POP POP POP POP JUMP JUMPDEST POP POP POP POP POP POP POP POP JUMP JUMPDEST POP POP POP POP POP POP POP JUMP JUMPDEST POP POP POP POP POP JUMP JUMPDEST POP POP POP POP POP POP POP JUMP JUMPDEST POP POP POP POP POP POP POP POP POP POP JUMP JUMPDEST POP POP POP POP POP POP POP JUMP JUMPDEST POP POP POP POP POP POP JUMP JUMPDEST POP POP POP POP POP POP POP POP JUMP JUMPDEST POP POP POP POP POP POP POP JUMP JUMPDEST POP POP POP POP POP POP POP JUMP JUMPDEST POP POP POP POP POP POP POP POP POP JUMP JUMPDEST POP POP POP POP JUMP JUMPDEST POP POP POP POP POP JUMP JUMPDEST POP POP POP POP POP POP POP POP POP JUMP JUMPDEST POP POP POP POP POP POP POP POP POP POP JUMP JUMPDEST POP POP POP POP JUMP JUMPDEST POP POP POP POP POP POP POP POP JUMP JUMPDEST POP POP POP POP JUMP JUMPDEST POP POP POP POP JUMP JUMPDEST POP POP POP POP POP POP POP POP POP JUMP JUMPDEST POP POP POP POP POP POP JUMP JUMPDEST POP POP POP POP POP POP POP POP POP JUMP JUMPDEST POP POP POP POP POP POP POP POP JUMP JUMPDEST POP POP POP POP POP POP JUMP JUMPDEST POP POP POP POP POP POP POP JUMP JUMPDEST POP POP POP POP POP POP JUMP JUMPDEST POP POP POP POP POP POP POP POP POP POP JUMP JUMPDEST POP POP POP POP POP POP POP POP POP POP JUMP JUMPDEST POP POP POP POP POP POP POP JUMP JUMPDEST POP POP POP POP POP POP POP POP POP POP POP JUMP JUMPDEST PUSH0 PUSH1 0x40 MLOAD SWAP1 POP SWAP1 JUMP JUMPDEST PUSH0 DUP1 REVERT JUMPDEST PUSH0 DUP1 REVERT JUMPDEST PUSH0 PUSH1 0xFF DUP3 AND SWAP1 POP SWAP2 SWAP1 POP JUMP JUMPDEST PUSH2 0x8D4 DUP2 PUSH2 0x8BF JUMP JUMPDEST DUP2 EQ PUSH2 0x8DE JUMPI PUSH0 DUP1 REVERT JUMPDEST POP JUMP JUMPDEST PUSH0 DUP2 CALLDATALOAD SWAP1 POP PUSH2 0x8EF DUP2 PUSH2 0x8CB JUMP JUMPDEST SWAP3 SWAP2 POP POP JUMP JUMPDEST PUSH0 DUP2 SWAP1 POP SWAP2 SWAP1 POP JUMP JUMPDEST PUSH2 0x907 DUP2 PUSH2 0x8F5 JUMP JUMPDEST DUP2 EQ PUSH2 0x911 JUMPI PUSH0 DUP1 REVERT JUMPDEST POP JUMP JUMPDEST PUSH0 DUP2 CALLDATALOAD SWAP1 POP PUSH2 0x922 DUP2 PUSH2 0x8FE JUMP JUMPDEST SWAP3 SWAP2 POP POP JUMP JUMPDEST PUSH0 PUSH20 0xFFFFFFFFFFFFFFFFFFFFFFFFFFFFFFFFFFFFFFFF DUP3 AND SWAP1 POP SWAP2 SWAP1 POP JUMP JUMPDEST PUSH0 PUSH2 0x951 DUP3 PUSH2 0x928 JUMP JUMPDEST SWAP1 POP SWAP2 SWAP1 POP JUMP JUMPDEST PUSH2 0x961 DUP2 PUSH2 0x947 JUMP JUMPDEST DUP2 EQ PUSH2 0x96B JUMPI PUSH0 DUP1 REVERT JUMPDEST POP JUMP JUMPDEST PUSH0 DUP2 CALLDATALOAD SWAP1 POP PUSH2 0x97C DUP2 PUSH2 0x958 JUMP JUMPDEST SWAP3 SWAP2 POP POP JUMP JUMPDEST PUSH0 DUP1 REVERT JUMPDEST PUSH0 DUP1 REVERT JUMPDEST PUSH0 PUSH1 0x1F NOT PUSH1 0x1F DUP4 ADD AND SWAP1 POP SWAP2 SWAP1 POP JUMP JUMPDEST PUSH32 0x4E487B7100000000000000000000000000000000000000000000000000000000 PUSH0 MSTORE PUSH1 0x41 PUSH1 0x4 MSTORE PUSH1 0x24 PUSH0 REVERT JUMPDEST PUSH2 0x9D0 DUP3 PUSH2 0x98A JUMP JUMPDEST DUP2 ADD DUP2 DUP2 LT PUSH8 0xFFFFFFFFFFFFFFFF DUP3 GT OR ISZERO PUSH2 0x9EF JUMPI PUSH2 0x9EE PUSH2 0x99A JUMP JUMPDEST JUMPDEST DUP1 PUSH1 0x40 MSTORE POP POP POP JUMP JUMPDEST PUSH0 PUSH2 0xA01 PUSH2 0x8AE JUMP JUMPDEST SWAP1 POP PUSH2 0xA0D DUP3 DUP3 PUSH2 0x9C7 JUMP JUMPDEST SWAP2 SWAP1 POP JUMP JUMPDEST PUSH0 PUSH8 0xFFFFFFFFFFFFFFFF DUP3 GT ISZERO PUSH2 0xA2C JUMPI PUSH2 0xA2B PUSH2 0x99A JUMP JUMPDEST JUMPDEST PUSH2 0xA35 DUP3 PUSH2 0x98A JUMP JUMPDEST SWAP1 POP PUSH1 0x20 DUP2 ADD SWAP1 POP SWAP2 SWAP1 POP JUMP JUMPDEST DUP3 DUP2 DUP4 CALLDATACOPY PUSH0 DUP4 DUP4 ADD MSTORE POP POP POP JUMP JUMPDEST PUSH0 PUSH2 0xA62 PUSH2 0xA5D DUP5 PUSH2 0xA12 JUMP JUMPDEST PUSH2 0x9F8 JUMP JUMPDEST SWAP1 POP DUP3 DUP2 MSTORE PUSH1 0x20 DUP2 ADD DUP5 DUP5 DUP5 ADD GT ISZERO PUSH2 0xA7E JUMPI PUSH2 0xA7D PUSH2 0x986 JUMP JUMPDEST JUMPDEST PUSH2 0xA89 DUP5 DUP3 DUP6 PUSH2 0xA42 JUMP JUMPDEST POP SWAP4 SWAP3 POP POP POP JUMP JUMPDEST PUSH0 DUP3 PUSH1 0x1F DUP4 ADD SLT PUSH2 0xAA5 JUMPI PUSH2 0xAA4 PUSH2 0x982 JUMP JUMPDEST JUMPDEST DUP2 CALLDATALOAD PUSH2 0xAB5 DUP5 DUP3 PUSH1 0x20 DUP7 ADD PUSH2 0xA50 JUMP JUMPDEST SWAP2 POP POP SWAP3 SWAP2 POP POP JUMP JUMPDEST PUSH0 DUP1 PUSH0 DUP1 PUSH0 DUP1 PUSH0 DUP1 PUSH2 0x100 DUP10 DUP12 SUB SLT ISZERO PUSH2 0xADB JUMPI PUSH2 0xADA PUSH2 0x8B7 JUMP JUMPDEST JUMPDEST PUSH0 PUSH2 0xAE8 DUP12 DUP3 DUP13 ADD PUSH2 0x8E1 JUMP JUMPDEST SWAP9 POP POP PUSH1 0x20 PUSH2 0xAF9 DUP12 DUP3 DUP13 ADD PUSH2 0x914 JUMP JUMPDEST SWAP8 POP POP PUSH1 0x40 PUSH2 0xB0A DUP12 DUP3 DUP13 ADD PUSH2 0x914 JUMP JUMPDEST SWAP7 POP POP PUSH1 0x60 PUSH2 0xB1B DUP12 DUP3 DUP13 ADD PUSH2 0x96E JUMP JUMPDEST SWAP6 POP POP PUSH1 0x80 DUP10 ADD CALLDATALOAD PUSH8 0xFFFFFFFFFFFFFFFF DUP2 GT ISZERO PUSH2 0xB3C JUMPI PUSH2 0xB3B PUSH2 0x8BB JUMP JUMPDEST JUMPDEST PUSH2 0xB48 DUP12 DUP3 DUP13 ADD PUSH2 0xA91 JUMP JUMPDEST SWAP5 POP POP PUSH1 0xA0 DUP10 ADD CALLDATALOAD PUSH8 0xFFFFFFFFFFFFFFFF DUP2 GT ISZERO PUSH2 0xB69 JUMPI PUSH2 0xB68 PUSH2 0x8BB JUMP JUMPDEST JUMPDEST PUSH2 0xB75 DUP12 DUP3 DUP13 ADD PUSH2 0xA91 JUMP JUMPDEST SWAP4 POP POP PUSH1 0xC0 DUP10 ADD CALLDATALOAD PUSH8 0xFFFFFFFFFFFFFFFF DUP2 GT ISZERO PUSH2 0xB96 JUMPI PUSH2 0xB95 PUSH2 0x8BB JUMP JUMPDEST JUMPDEST PUSH2 0xBA2 DUP12 DUP3 DUP13 ADD PUSH2 0xA91 JUMP JUMPDEST SWAP3 POP POP PUSH1 0xE0 DUP10 ADD CALLDATALOAD PUSH8 0xFFFFFFFFFFFFFFFF DUP2 GT ISZERO PUSH2 0xBC3 JUMPI PUSH2 0xBC2 PUSH2 0x8BB JUMP JUMPDEST JUMPDEST PUSH2 0xBCF DUP12 DUP3 DUP13 ADD PUSH2 0xA91 JUMP JUMPDEST SWAP2 POP POP SWAP3 SWAP6 SWAP9 POP SWAP3 SWAP6 SWAP9 SWAP1 SWAP4 SWAP7 POP JUMP JUMPDEST PUSH0 DUP1 PUSH0 DUP1 PUSH1 0x80 DUP6 DUP8 SUB SLT ISZERO PUSH2 0xBF7 JUMPI PUSH2 0xBF6 PUSH2 0x8B7 JUMP JUMPDEST JUMPDEST PUSH0 PUSH2 0xC04 DUP8 DUP3 DUP9 ADD PUSH2 0x8E1 JUMP JUMPDEST SWAP5 POP POP PUSH1 0x20 PUSH2 0xC15 DUP8 DUP3 DUP9 ADD PUSH2 0x914 JUMP JUMPDEST SWAP4 POP POP PUSH1 0x40 PUSH2 0xC26 DUP8 DUP3 DUP9 ADD PUSH2 0x914 JUMP JUMPDEST SWAP3 POP POP PUSH1 0x60 PUSH2 0xC37 DUP8 DUP3 DUP9 ADD PUSH2 0x96E JUMP JUMPDEST SWAP2 POP POP SWAP3 SWAP6 SWAP2 SWAP5 POP SWAP3 POP JUMP JUMPDEST PUSH0 DUP2 ISZERO ISZERO SWAP1 POP SWAP2 SWAP1 POP JUMP JUMPDEST PUSH2 0xC57 DUP2 PUSH2 0xC43 JUMP JUMPDEST DUP2 EQ PUSH2 0xC61 JUMPI PUSH0 DUP1 REVERT JUMPDEST POP JUMP JUMPDEST PUSH0 DUP2 CALLDATALOAD SWAP1 POP PUSH2 0xC72 DUP2 PUSH2 0xC4E JUMP JUMPDEST SWAP3 SWAP2 POP POP JUMP JUMPDEST PUSH0 DUP1 REVERT JUMPDEST PUSH0 DUP1 REVERT JUMPDEST PUSH0 DUP1 DUP4 PUSH1 0x1F DUP5 ADD SLT PUSH2 0xC95 JUMPI PUSH2 0xC94 PUSH2 0x982 JUMP JUMPDEST JUMPDEST DUP3 CALLDATALOAD SWAP1 POP PUSH8 0xFFFFFFFFFFFFFFFF DUP2 GT ISZERO PUSH2 0xCB2 JUMPI PUSH2 0xCB1 PUSH2 0xC78 JUMP JUMPDEST JUMPDEST PUSH1 0x20 DUP4 ADD SWAP2 POP DUP4 PUSH1 0x1 DUP3 MUL DUP4 ADD GT ISZERO PUSH2 0xCCE JUMPI PUSH2 0xCCD PUSH2 0xC7C JUMP JUMPDEST JUMPDEST SWAP3 POP SWAP3 SWAP1 POP JUMP JUMPDEST PUSH0 DUP1 PUSH0 DUP1 PUSH0 DUP1 PUSH0 DUP1 PUSH0 PUSH1 0xE0 DUP11 DUP13 SUB SLT ISZERO PUSH2 0xCF2 JUMPI PUSH2 0xCF1 PUSH2 0x8B7 JUMP JUMPDEST JUMPDEST PUSH0 PUSH2 0xCFF DUP13 DUP3 DUP14 ADD PUSH2 0x8E1 JUMP JUMPDEST SWAP10 POP POP PUSH1 0x20 PUSH2 0xD10 DUP13 DUP3 DUP14 ADD PUSH2 0x914 JUMP JUMPDEST SWAP9 POP POP PUSH1 0x40 PUSH2 0xD21 DUP13 DUP3 DUP14 ADD PUSH2 0x914 JUMP JUMPDEST SWAP8 POP POP PUSH1 0x60 PUSH2 0xD32 DUP13 DUP3 DUP14 ADD PUSH2 0x96E JUMP JUMPDEST SWAP7 POP POP PUSH1 0x80 PUSH2 0xD43 DUP13 DUP3 DUP14 ADD PUSH2 0xC64 JUMP JUMPDEST SWAP6 POP POP PUSH1 0xA0 DUP11 ADD CALLDATALOAD PUSH8 0xFFFFFFFFFFFFFFFF DUP2 GT ISZERO PUSH2 0xD64 JUMPI PUSH2 0xD63 PUSH2 0x8BB JUMP JUMPDEST JUMPDEST PUSH2 0xD70 DUP13 DUP3 DUP14 ADD PUSH2 0xC80 JUMP JUMPDEST SWAP5 POP SWAP5 POP POP PUSH1 0xC0 DUP11 ADD CALLDATALOAD PUSH8 0xFFFFFFFFFFFFFFFF DUP2 GT ISZERO PUSH2 0xD93 JUMPI PUSH2 0xD92 PUSH2 0x8BB JUMP JUMPDEST JUMPDEST PUSH2 0xD9F DUP13 DUP3 DUP14 ADD PUSH2 0xC80 JUMP JUMPDEST SWAP3 POP SWAP3 POP POP SWAP3 SWAP6 SWAP9 POP SWAP3 SWAP6 SWAP9 POP SWAP3 SWAP6 SWAP9 JUMP JUMPDEST PUSH0 DUP1 PUSH0 DUP1 PUSH0 DUP1 PUSH1 0xC0 DUP8 DUP10 SUB SLT ISZERO PUSH2 0xDCB JUMPI PUSH2 0xDCA PUSH2 0x8B7 JUMP JUMPDEST JUMPDEST PUSH0 PUSH2 0xDD8 DUP10 DUP3 DUP11 ADD PUSH2 0x8E1 JUMP JUMPDEST SWAP7 POP POP PUSH1 0x20 PUSH2 0xDE9 DUP10 DUP3 DUP11 ADD PUSH2 0x914 JUMP JUMPDEST SWAP6 POP POP PUSH1 0x40 PUSH2 0xDFA DUP10 DUP3 DUP11 ADD PUSH2 0x914 JUMP JUMPDEST SWAP5 POP POP PUSH1 0x60 PUSH2 0xE0B DUP10 DUP3 DUP11 ADD PUSH2 0x96E JUMP JUMPDEST SWAP4 POP POP PUSH1 0x80 DUP8 ADD CALLDATALOAD PUSH8 0xFFFFFFFFFFFFFFFF DUP2 GT ISZERO PUSH2 0xE2C JUMPI PUSH2 0xE2B PUSH2 0x8BB JUMP JUMPDEST JUMPDEST PUSH2 0xE38 DUP10 DUP3 DUP11 ADD PUSH2 0xA91 JUMP JUMPDEST SWAP3 POP POP PUSH1 0xA0 DUP8 ADD CALLDATALOAD PUSH8 0xFFFFFFFFFFFFFFFF DUP2 GT ISZERO PUSH2 0xE59 JUMPI PUSH2 0xE58 PUSH2 0x8BB JUMP JUMPDEST JUMPDEST PUSH2 0xE65 DUP10 DUP3 DUP11 ADD PUSH2 0xA91 JUMP JUMPDEST SWAP2 POP POP SWAP3 SWAP6 POP SWAP3 SWAP6 POP SWAP3 SWAP6 JUMP JUMPDEST PUSH0 DUP2 SWAP1 POP SWAP2 SWAP1 POP JUMP JUMPDEST PUSH2 0xE84 DUP2 PUSH2 0xE72 JUMP JUMPDEST DUP2 EQ PUSH2 0xE8E JUMPI PUSH0 DUP1 REVERT JUMPDEST POP JUMP JUMPDEST PUSH0 DUP2 CALLDATALOAD SWAP1 POP PUSH2 0xE9F DUP2 PUSH2 0xE7B JUMP JUMPDEST SWAP3 SWAP2 POP POP JUMP JUMPDEST PUSH0 DUP1 PUSH0 DUP1 PUSH0 DUP1 PUSH0 DUP1 PUSH1 0xE0 DUP10 DUP12 SUB SLT ISZERO PUSH2 0xEC1 JUMPI PUSH2 0xEC0 PUSH2 0x8B7 JUMP JUMPDEST JUMPDEST PUSH0 PUSH2 0xECE DUP12 DUP3 DUP13 ADD PUSH2 0x8E1 JUMP JUMPDEST SWAP9 POP POP PUSH1 0x20 PUSH2 0xEDF DUP12 DUP3 DUP13 ADD PUSH2 0x914 JUMP JUMPDEST SWAP8 POP POP PUSH1 0x40 PUSH2 0xEF0 DUP12 DUP3 DUP13 ADD PUSH2 0x914 JUMP JUMPDEST SWAP7 POP POP PUSH1 0x60 PUSH2 0xF01 DUP12 DUP3 DUP13 ADD PUSH2 0x96E JUMP JUMPDEST SWAP6 POP POP PUSH1 0x80 PUSH2 0xF12 DUP12 DUP3 DUP13 ADD PUSH2 0xE91 JUMP JUMPDEST SWAP5 POP POP PUSH1 0xA0 PUSH2 0xF23 DUP12 DUP3 DUP13 ADD PUSH2 0xE91 JUMP JUMPDEST SWAP4 POP POP PUSH1 0xC0 DUP10 ADD CALLDATALOAD PUSH8 0xFFFFFFFFFFFFFFFF DUP2 GT ISZERO PUSH2 0xF44 JUMPI PUSH2 0xF43 PUSH2 0x8BB JUMP JUMPDEST JUMPDEST PUSH2 0xF50 DUP12 DUP3 DUP13 ADD PUSH2 0xC80 JUMP JUMPDEST SWAP3 POP SWAP3 POP POP SWAP3 SWAP6 SWAP9 POP SWAP3 SWAP6 SWAP9 SWAP1 SWAP4 SWAP7 POP JUMP JUMPDEST PUSH0 PUSH8 0xFFFFFFFFFFFFFFFF DUP3 GT ISZERO PUSH2 0xF7C JUMPI PUSH2 0xF7B PUSH2 0x99A JUMP JUMPDEST JUMPDEST PUSH1 0x20 DUP3 MUL SWAP1 POP PUSH1 0x20 DUP2 ADD SWAP1 POP SWAP2 SWAP1 POP JUMP JUMPDEST PUSH0 PUSH2 0xF9F PUSH2 0xF9A DUP5 PUSH2 0xF62 JUMP JUMPDEST PUSH2 0x9F8 JUMP JUMPDEST SWAP1 POP DUP1 DUP4 DUP3 MSTORE PUSH1 0x20 DUP3 ADD SWAP1 POP PUSH1 0x20 DUP5 MUL DUP4 ADD DUP6 DUP2 GT ISZERO PUSH2 0xFC2 JUMPI PUSH2 0xFC1 PUSH2 0xC7C JUMP JUMPDEST JUMPDEST DUP4 JUMPDEST DUP2 DUP2 LT ISZERO PUSH2 0x1009 JUMPI DUP1 CALLDATALOAD PUSH8 0xFFFFFFFFFFFFFFFF DUP2 GT ISZERO PUSH2 0xFE7 JUMPI PUSH2 0xFE6 PUSH2 0x982 JUMP JUMPDEST JUMPDEST DUP1 DUP7 ADD PUSH2 0xFF4 DUP10 DUP3 PUSH2 0xA91 JUMP JUMPDEST DUP6 MSTORE PUSH1 0x20 DUP6 ADD SWAP5 POP POP POP PUSH1 0x20 DUP2 ADD SWAP1 POP PUSH2 0xFC4 JUMP JUMPDEST POP POP POP SWAP4 SWAP3 POP POP POP JUMP JUMPDEST PUSH0 DUP3 PUSH1 0x1F DUP4 ADD SLT PUSH2 0x1027 JUMPI PUSH2 0x1026 PUSH2 0x982 JUMP JUMPDEST JUMPDEST DUP2 CALLDATALOAD PUSH2 0x1037 DUP5 DUP3 PUSH1 0x20 DUP7 ADD PUSH2 0xF8D JUMP JUMPDEST SWAP2 POP POP SWAP3 SWAP2 POP POP JUMP JUMPDEST PUSH0 DUP1 PUSH0 DUP1 PUSH0 DUP1 PUSH0 DUP1 PUSH0 PUSH2 0x120 DUP11 DUP13 SUB SLT ISZERO PUSH2 0x105E JUMPI PUSH2 0x105D PUSH2 0x8B7 JUMP JUMPDEST JUMPDEST PUSH0 PUSH2 0x106B DUP13 DUP3 DUP14 ADD PUSH2 0x8E1 JUMP JUMPDEST SWAP10 POP POP PUSH1 0x20 PUSH2 0x107C DUP13 DUP3 DUP14 ADD PUSH2 0x914 JUMP JUMPDEST SWAP9 POP POP PUSH1 0x40 PUSH2 0x108D DUP13 DUP3 DUP14 ADD PUSH2 0x914 JUMP JUMPDEST SWAP8 POP POP PUSH1 0x60 PUSH2 0x109E DUP13 DUP3 DUP14 ADD PUSH2 0x96E JUMP JUMPDEST SWAP7 POP POP PUSH1 0x80 DUP11 ADD CALLDATALOAD PUSH8 0xFFFFFFFFFFFFFFFF DUP2 GT ISZERO PUSH2 0x10BF JUMPI PUSH2 0x10BE PUSH2 0x8BB JUMP JUMPDEST JUMPDEST PUSH2 0x10CB DUP13 DUP3 DUP14 ADD PUSH2 0xA91 JUMP JUMPDEST SWAP6 POP POP PUSH1 0xA0 DUP11 ADD CALLDATALOAD PUSH8 0xFFFFFFFFFFFFFFFF DUP2 GT ISZERO PUSH2 0x10EC JUMPI PUSH2 0x10EB PUSH2 0x8BB JUMP JUMPDEST JUMPDEST PUSH2 0x10F8 DUP13 DUP3 DUP14 ADD PUSH2 0xA91 JUMP JUMPDEST SWAP5 POP POP PUSH1 0xC0 DUP11 ADD CALLDATALOAD PUSH8 0xFFFFFFFFFFFFFFFF DUP2 GT ISZERO PUSH2 0x1119 JUMPI PUSH2 0x1118 PUSH2 0x8BB JUMP JUMPDEST JUMPDEST PUSH2 0x1125 DUP13 DUP3 DUP14 ADD PUSH2 0xA91 JUMP JUMPDEST SWAP4 POP POP PUSH1 0xE0 DUP11 ADD CALLDATALOAD PUSH8 0xFFFFFFFFFFFFFFFF DUP2 GT ISZERO PUSH2 0x1146 JUMPI PUSH2 0x1145 PUSH2 0x8BB JUMP JUMPDEST JUMPDEST PUSH2 0x1152 DUP13 DUP3 DUP14 ADD PUSH2 0xA91 JUMP JUMPDEST SWAP3 POP POP PUSH2 0x100 DUP11 ADD CALLDATALOAD PUSH8 0xFFFFFFFFFFFFFFFF DUP2 GT ISZERO PUSH2 0x1174 JUMPI PUSH2 0x1173 PUSH2 0x8BB JUMP JUMPDEST JUMPDEST PUSH2 0x1180 DUP13 DUP3 DUP14 ADD PUSH2 0x1013 JUMP JUMPDEST SWAP2 POP POP SWAP3 SWAP6 SWAP9 POP SWAP3 SWAP6 SWAP9 POP SWAP3 SWAP6 SWAP9 JUMP JUMPDEST PUSH0 DUP1 DUP4 PUSH1 0x1F DUP5 ADD SLT PUSH2 0x11A5 JUMPI PUSH2 0x11A4 PUSH2 0x982 JUMP JUMPDEST JUMPDEST DUP3 CALLDATALOAD SWAP1 POP PUSH8 0xFFFFFFFFFFFFFFFF DUP2 GT ISZERO PUSH2 0x11C2 JUMPI PUSH2 0x11C1 PUSH2 0xC78 JUMP JUMPDEST JUMPDEST PUSH1 0x20 DUP4 ADD SWAP2 POP DUP4 PUSH1 0x20 DUP3 MUL DUP4 ADD GT ISZERO PUSH2 0x11DE JUMPI PUSH2 0x11DD PUSH2 0xC7C JUMP JUMPDEST JUMPDEST SWAP3 POP SWAP3 SWAP1 POP JUMP JUMPDEST PUSH0 DUP1 PUSH0 DUP1 PUSH0 DUP1 PUSH1 0xA0 DUP8 DUP10 SUB SLT ISZERO PUSH2 0x11FF JUMPI PUSH2 0x11FE PUSH2 0x8B7 JUMP JUMPDEST JUMPDEST PUSH0 PUSH2 0x120C DUP10 DUP3 DUP11 ADD PUSH2 0x8E1 JUMP JUMPDEST SWAP7 POP POP PUSH1 0x20 PUSH2 0x121D DUP10 DUP3 DUP11 ADD PUSH2 0x914 JUMP JUMPDEST SWAP6 POP POP PUSH1 0x40 PUSH2 0x122E DUP10 DUP3 DUP11 ADD PUSH2 0x914 JUMP JUMPDEST SWAP5 POP POP PUSH1 0x60 PUSH2 0x123F DUP10 DUP3 DUP11 ADD PUSH2 0x96E JUMP JUMPDEST SWAP4 POP POP PUSH1 0x80 DUP8 ADD CALLDATALOAD PUSH8 0xFFFFFFFFFFFFFFFF DUP2 GT ISZERO PUSH2 0x1260 JUMPI PUSH2 0x125F PUSH2 0x8BB JUMP JUMPDEST JUMPDEST PUSH2 0x126C DUP10 DUP3 DUP11 ADD PUSH2 0x1190 JUMP JUMPDEST SWAP3 POP SWAP3 POP POP SWAP3 SWAP6 POP SWAP3 SWAP6 POP SWAP3 SWAP6 JUMP JUMPDEST PUSH0 DUP1 PUSH0 DUP1 PUSH0 DUP1 PUSH0 PUSH1 0xC0 DUP9 DUP11 SUB SLT ISZERO PUSH2 0x1296 JUMPI PUSH2 0x1295 PUSH2 0x8B7 JUMP JUMPDEST JUMPDEST PUSH0 PUSH2 0x12A3 DUP11 DUP3 DUP12 ADD PUSH2 0x8E1 JUMP JUMPDEST SWAP8 POP POP PUSH1 0x20 PUSH2 0x12B4 DUP11 DUP3 DUP12 ADD PUSH2 0x914 JUMP JUMPDEST SWAP7 POP POP PUSH1 0x40 PUSH2 0x12C5 DUP11 DUP3 DUP12 ADD PUSH2 0x914 JUMP JUMPDEST SWAP6 POP POP PUSH1 0x60 PUSH2 0x12D6 DUP11 DUP3 DUP12 ADD PUSH2 0x96E JUMP JUMPDEST SWAP5 POP POP PUSH1 0x80 PUSH2 0x12E7 DUP11 DUP3 DUP12 ADD PUSH2 0xE91 JUMP JUMPDEST SWAP4 POP POP PUSH1 0xA0 DUP9 ADD CALLDATALOAD PUSH8 0xFFFFFFFFFFFFFFFF DUP2 GT ISZERO PUSH2 0x1308 JUMPI PUSH2 0x1307 PUSH2 0x8BB JUMP JUMPDEST JUMPDEST PUSH2 0x1314 DUP11 DUP3 DUP12 ADD PUSH2 0xC80 JUMP JUMPDEST SWAP3 POP SWAP3 POP POP SWAP3 SWAP6 SWAP9 SWAP2 SWAP5 SWAP8 POP SWAP3 SWAP6 POP JUMP JUMPDEST PUSH0 DUP1 PUSH0 DUP1 PUSH0 DUP1 PUSH1 0xC0 DUP8 DUP10 SUB SLT ISZERO PUSH2 0x133F JUMPI PUSH2 0x133E PUSH2 0x8B7 JUMP JUMPDEST JUMPDEST PUSH0 PUSH2 0x134C DUP10 DUP3 DUP11 ADD PUSH2 0x8E1 JUMP JUMPDEST SWAP7 POP POP PUSH1 0x20 PUSH2 0x135D DUP10 DUP3 DUP11 ADD PUSH2 0x914 JUMP JUMPDEST SWAP6 POP POP PUSH1 0x40 PUSH2 0x136E DUP10 DUP3 DUP11 ADD PUSH2 0x914 JUMP JUMPDEST SWAP5 POP POP PUSH1 0x60 PUSH2 0x137F DUP10 DUP3 DUP11 ADD PUSH2 0x96E JUMP JUMPDEST SWAP4 POP POP PUSH1 0x80 PUSH2 0x1390 DUP10 DUP3 DUP11 ADD PUSH2 0xE91 JUMP JUMPDEST SWAP3 POP POP PUSH1 0xA0 PUSH2 0x13A1 DUP10 DUP3 DUP11 ADD PUSH2 0xC64 JUMP JUMPDEST SWAP2 POP POP SWAP3 SWAP6 POP SWAP3 SWAP6 POP SWAP3 SWAP6 JUMP JUMPDEST PUSH0 DUP2 SWAP1 POP SWAP2 SWAP1 POP JUMP JUMPDEST PUSH2 0x13C0 DUP2 PUSH2 0x13AE JUMP JUMPDEST DUP2 EQ PUSH2 0x13CA JUMPI PUSH0 DUP1 REVERT JUMPDEST POP JUMP JUMPDEST PUSH0 DUP2 CALLDATALOAD SWAP1 POP PUSH2 0x13DB DUP2 PUSH2 0x13B7 JUMP JUMPDEST SWAP3 SWAP2 POP POP JUMP JUMPDEST PUSH0 DUP1 PUSH0 DUP1 PUSH0 DUP1 PUSH0 DUP1 PUSH0 PUSH2 0x100 DUP11 DUP13 SUB SLT ISZERO PUSH2 0x13FF JUMPI PUSH2 0x13FE PUSH2 0x8B7 JUMP JUMPDEST JUMPDEST PUSH0 PUSH2 0x140C DUP13 DUP3 DUP14 ADD PUSH2 0x8E1 JUMP JUMPDEST SWAP10 POP POP PUSH1 0x20 PUSH2 0x141D DUP13 DUP3 DUP14 ADD PUSH2 0x914 JUMP JUMPDEST SWAP9 POP POP PUSH1 0x40 PUSH2 0x142E DUP13 DUP3 DUP14 ADD PUSH2 0x914 JUMP JUMPDEST SWAP8 POP POP PUSH1 0x60 PUSH2 0x143F DUP13 DUP3 DUP14 ADD PUSH2 0x96E JUMP JUMPDEST SWAP7 POP POP PUSH1 0x80 PUSH2 0x1450 DUP13 DUP3 DUP14 ADD PUSH2 0x13CD JUMP JUMPDEST SWAP6 POP POP PUSH1 0xA0 PUSH2 0x1461 DUP13 DUP3 DUP14 ADD PUSH2 0x13CD JUMP JUMPDEST SWAP5 POP POP PUSH1 0xC0 PUSH2 0x1472 DUP13 DUP3 DUP14 ADD PUSH2 0x13CD JUMP JUMPDEST SWAP4 POP POP PUSH1 0xE0 DUP11 ADD CALLDATALOAD PUSH8 0xFFFFFFFFFFFFFFFF DUP2 GT ISZERO PUSH2 0x1493 JUMPI PUSH2 0x1492 PUSH2 0x8BB JUMP JUMPDEST JUMPDEST PUSH2 0x149F DUP13 DUP3 DUP14 ADD PUSH2 0xC80 JUMP JUMPDEST SWAP3 POP SWAP3 POP POP SWAP3 SWAP6 SWAP9 POP SWAP3 SWAP6 SWAP9 POP SWAP3 SWAP6 SWAP9 JUMP JUMPDEST PUSH0 PUSH8 0xFFFFFFFFFFFFFFFF DUP3 GT ISZERO PUSH2 0x14CB JUMPI PUSH2 0x14CA PUSH2 0x99A JUMP JUMPDEST JUMPDEST PUSH1 0x20 DUP3 MUL SWAP1 POP PUSH1 0x20 DUP2 ADD SWAP1 POP SWAP2 SWAP1 POP JUMP JUMPDEST PUSH0 PUSH2 0x14EE PUSH2 0x14E9 DUP5 PUSH2 0x14B1 JUMP JUMPDEST PUSH2 0x9F8 JUMP JUMPDEST SWAP1 POP DUP1 DUP4 DUP3 MSTORE PUSH1 0x20 DUP3 ADD SWAP1 POP PUSH1 0x20 DUP5 MUL DUP4 ADD DUP6 DUP2 GT ISZERO PUSH2 0x1511 JUMPI PUSH2 0x1510 PUSH2 0xC7C JUMP JUMPDEST JUMPDEST DUP4 JUMPDEST DUP2 DUP2 LT ISZERO PUSH2 0x153A JUMPI DUP1 PUSH2 0x1526 DUP9 DUP3 PUSH2 0xC64 JUMP JUMPDEST DUP5 MSTORE PUSH1 0x20 DUP5 ADD SWAP4 POP POP PUSH1 0x20 DUP2 ADD SWAP1 POP PUSH2 0x1513 JUMP JUMPDEST POP POP POP SWAP4 SWAP3 POP POP POP JUMP JUMPDEST PUSH0 DUP3 PUSH1 0x1F DUP4 ADD SLT PUSH2 0x1558 JUMPI PUSH2 0x1557 PUSH2 0x982 JUMP JUMPDEST JUMPDEST DUP2 CALLDATALOAD PUSH2 0x1568 DUP5 DUP3 PUSH1 0x20 DUP7 ADD PUSH2 0x14DC JUMP JUMPDEST SWAP2 POP POP SWAP3 SWAP2 POP POP JUMP JUMPDEST PUSH0 PUSH8 0xFFFFFFFFFFFFFFFF DUP3 GT ISZERO PUSH2 0x158B JUMPI PUSH2 0x158A PUSH2 0x99A JUMP JUMPDEST JUMPDEST PUSH1 0x20 DUP3 MUL SWAP1 POP PUSH1 0x20 DUP2 ADD SWAP1 POP SWAP2 SWAP1 POP JUMP JUMPDEST PUSH0 PUSH2 0x15AE PUSH2 0x15A9 DUP5 PUSH2 0x1571 JUMP JUMPDEST PUSH2 0x9F8 JUMP JUMPDEST SWAP1 POP DUP1 DUP4 DUP3 MSTORE PUSH1 0x20 DUP3 ADD SWAP1 POP PUSH1 0x20 DUP5 MUL DUP4 ADD DUP6 DUP2 GT ISZERO PUSH2 0x15D1 JUMPI PUSH2 0x15D0 PUSH2 0xC7C JUMP JUMPDEST JUMPDEST DUP4 JUMPDEST DUP2 DUP2 LT ISZERO PUSH2 0x15FA JUMPI DUP1 PUSH2 0x15E6 DUP9 DUP3 PUSH2 0xE91 JUMP JUMPDEST DUP5 MSTORE PUSH1 0x20 DUP5 ADD SWAP4 POP POP PUSH1 0x20 DUP2 ADD SWAP1 POP PUSH2 0x15D3 JUMP JUMPDEST POP POP POP SWAP4 SWAP3 POP POP POP JUMP JUMPDEST PUSH0 DUP3 PUSH1 0x1F DUP4 ADD SLT PUSH2 0x1618 JUMPI PUSH2 0x1617 PUSH2 0x982 JUMP JUMPDEST JUMPDEST DUP2 CALLDATALOAD PUSH2 0x1628 DUP5 DUP3 PUSH1 0x20 DUP7 ADD PUSH2 0x159C JUMP JUMPDEST SWAP2 POP POP SWAP3 SWAP2 POP POP JUMP JUMPDEST PUSH0 DUP1 PUSH0 DUP1 PUSH0 DUP1 PUSH0 DUP1 PUSH2 0x100 DUP10 DUP12 SUB SLT ISZERO PUSH2 0x164E JUMPI PUSH2 0x164D PUSH2 0x8B7 JUMP JUMPDEST JUMPDEST PUSH0 PUSH2 0x165B DUP12 DUP3 DUP13 ADD PUSH2 0x8E1 JUMP JUMPDEST SWAP9 POP POP PUSH1 0x20 PUSH2 0x166C DUP12 DUP3 DUP13 ADD PUSH2 0x914 JUMP JUMPDEST SWAP8 POP POP PUSH1 0x40 PUSH2 0x167D DUP12 DUP3 DUP13 ADD PUSH2 0x914 JUMP JUMPDEST SWAP7 POP POP PUSH1 0x60 PUSH2 0x168E DUP12 DUP3 DUP13 ADD PUSH2 0x96E JUMP JUMPDEST SWAP6 POP POP PUSH1 0x80 DUP10 ADD CALLDATALOAD PUSH8 0xFFFFFFFFFFFFFFFF DUP2 GT ISZERO PUSH2 0x16AF JUMPI PUSH2 0x16AE PUSH2 0x8BB JUMP JUMPDEST JUMPDEST PUSH2 0x16BB DUP12 DUP3 DUP13 ADD PUSH2 0x1544 JUMP JUMPDEST SWAP5 POP POP PUSH1 0xA0 DUP10 ADD CALLDATALOAD PUSH8 0xFFFFFFFFFFFFFFFF DUP2 GT ISZERO PUSH2 0x16DC JUMPI PUSH2 0x16DB PUSH2 0x8BB JUMP JUMPDEST JUMPDEST PUSH2 0x16E8 DUP12 DUP3 DUP13 ADD PUSH2 0x1604 JUMP JUMPDEST SWAP4 POP POP PUSH1 0xC0 DUP10 ADD CALLDATALOAD PUSH8 0xFFFFFFFFFFFFFFFF DUP2 GT ISZERO PUSH2 0x1709 JUMPI PUSH2 0x1708 PUSH2 0x8BB JUMP JUMPDEST JUMPDEST PUSH2 0x1715 DUP12 DUP3 DUP13 ADD PUSH2 0x1013 JUMP JUMPDEST SWAP3 POP POP PUSH1 0xE0 DUP10 ADD CALLDATALOAD PUSH8 0xFFFFFFFFFFFFFFFF DUP2 GT ISZERO PUSH2 0x1736 JUMPI PUSH2 0x1735 PUSH2 0x8BB JUMP JUMPDEST JUMPDEST PUSH2 0x1742 DUP12 DUP3 DUP13 ADD PUSH2 0x1013 JUMP JUMPDEST SWAP2 POP POP SWAP3 SWAP6 SWAP9 POP SWAP3 SWAP6 SWAP9 SWAP1 SWAP4 SWAP7 POP JUMP JUMPDEST PUSH0 DUP1 PUSH0 DUP1 PUSH0 DUP1 PUSH0 DUP1 PUSH1 0xC0 DUP10 DUP12 SUB SLT ISZERO PUSH2 0x176E JUMPI PUSH2 0x176D PUSH2 0x8B7 JUMP JUMPDEST JUMPDEST PUSH0 PUSH2 0x177B DUP12 DUP3 DUP13 ADD PUSH2 0x8E1 JUMP JUMPDEST SWAP9 POP POP PUSH1 0x20 PUSH2 0x178C DUP12 DUP3 DUP13 ADD PUSH2 0x914 JUMP JUMPDEST SWAP8 POP POP PUSH1 0x40 PUSH2 0x179D DUP12 DUP3 DUP13 ADD PUSH2 0x914 JUMP JUMPDEST SWAP7 POP POP PUSH1 0x60 PUSH2 0x17AE DUP12 DUP3 DUP13 ADD PUSH2 0x96E JUMP JUMPDEST SWAP6 POP POP PUSH1 0x80 DUP10 ADD CALLDATALOAD PUSH8 0xFFFFFFFFFFFFFFFF DUP2 GT ISZERO PUSH2 0x17CF JUMPI PUSH2 0x17CE PUSH2 0x8BB JUMP JUMPDEST JUMPDEST PUSH2 0x17DB DUP12 DUP3 DUP13 ADD PUSH2 0xC80 JUMP JUMPDEST SWAP5 POP SWAP5 POP POP PUSH1 0xA0 DUP10 ADD CALLDATALOAD PUSH8 0xFFFFFFFFFFFFFFFF DUP2 GT ISZERO PUSH2 0x17FE JUMPI PUSH2 0x17FD PUSH2 0x8BB JUMP JUMPDEST JUMPDEST PUSH2 0x180A DUP12 DUP3 DUP13 ADD PUSH2 0xC80 JUMP JUMPDEST SWAP3 POP SWAP3 POP POP SWAP3 SWAP6 SWAP9 POP SWAP3 SWAP6 SWAP9 SWAP1 SWAP4 SWAP7 POP JUMP JUMPDEST PUSH0 DUP1 PUSH0 DUP1 PUSH0 PUSH1 0xA0 DUP7 DUP9 SUB SLT ISZERO PUSH2 0x1835 JUMPI PUSH2 0x1834 PUSH2 0x8B7 JUMP JUMPDEST JUMPDEST PUSH0 PUSH2 0x1842 DUP9 DUP3 DUP10 ADD PUSH2 0x8E1 JUMP JUMPDEST SWAP6 POP POP PUSH1 0x20 PUSH2 0x1853 DUP9 DUP3 DUP10 ADD PUSH2 0x914 JUMP JUMPDEST SWAP5 POP POP PUSH1 0x40 PUSH2 0x1864 DUP9 DUP3 DUP10 ADD PUSH2 0x914 JUMP JUMPDEST SWAP4 POP POP PUSH1 0x60 PUSH2 0x1875 DUP9 DUP3 DUP10 ADD PUSH2 0x96E JUMP JUMPDEST SWAP3 POP POP PUSH1 0x80 PUSH2 0x1886 DUP9 DUP3 DUP10 ADD PUSH2 0xE91 JUMP JUMPDEST SWAP2 POP POP SWAP3 SWAP6 POP SWAP3 SWAP6 SWAP1 SWAP4 POP JUMP JUMPDEST PUSH0 PUSH4 0xFFFFFFFF DUP3 AND SWAP1 POP SWAP2 SWAP1 POP JUMP JUMPDEST PUSH2 0x18AB DUP2 PUSH2 0x1893 JUMP JUMPDEST DUP2 EQ PUSH2 0x18B5 JUMPI PUSH0 DUP1 REVERT JUMPDEST POP JUMP JUMPDEST PUSH0 DUP2 CALLDATALOAD SWAP1 POP PUSH2 0x18C6 DUP2 PUSH2 0x18A2 JUMP JUMPDEST SWAP3 SWAP2 POP POP JUMP JUMPDEST PUSH0 DUP1 PUSH0 DUP1 PUSH0 DUP1 PUSH0 DUP1 PUSH0 DUP1 PUSH2 0x140 DUP12 DUP14 SUB SLT ISZERO PUSH2 0x18EB JUMPI PUSH2 0x18EA PUSH2 0x8B7 JUMP JUMPDEST JUMPDEST PUSH0 PUSH2 0x18F8 DUP14 DUP3 DUP15 ADD PUSH2 0x8E1 JUMP JUMPDEST SWAP11 POP POP PUSH1 0x20 PUSH2 0x1909 DUP14 DUP3 DUP15 ADD PUSH2 0x914 JUMP JUMPDEST SWAP10 POP POP PUSH1 0x40 PUSH2 0x191A DUP14 DUP3 DUP15 ADD PUSH2 0x914 JUMP JUMPDEST SWAP9 POP POP PUSH1 0x60 PUSH2 0x192B DUP14 DUP3 DUP15 ADD PUSH2 0x96E JUMP JUMPDEST SWAP8 POP POP PUSH1 0x80 PUSH2 0x193C DUP14 DUP3 DUP15 ADD PUSH2 0xC64 JUMP JUMPDEST SWAP7 POP POP PUSH1 0xA0 PUSH2 0x194D DUP14 DUP3 DUP15 ADD PUSH2 0x18B8 JUMP JUMPDEST SWAP6 POP POP PUSH1 0xC0 DUP12 ADD CALLDATALOAD PUSH8 0xFFFFFFFFFFFFFFFF DUP2 GT ISZERO PUSH2 0x196E JUMPI PUSH2 0x196D PUSH2 0x8BB JUMP JUMPDEST JUMPDEST PUSH2 0x197A DUP14 DUP3 DUP15 ADD PUSH2 0xA91 JUMP JUMPDEST SWAP5 POP POP PUSH1 0xE0 DUP12 ADD CALLDATALOAD PUSH8 0xFFFFFFFFFFFFFFFF DUP2 GT ISZERO PUSH2 0x199B JUMPI PUSH2 0x199A PUSH2 0x8BB JUMP JUMPDEST JUMPDEST PUSH2 0x19A7 DUP14 DUP3 DUP15 ADD PUSH2 0xA91 JUMP JUMPDEST SWAP4 POP POP PUSH2 0x100 DUP12 ADD CALLDATALOAD PUSH8 0xFFFFFFFFFFFFFFFF DUP2 GT ISZERO PUSH2 0x19C9 JUMPI PUSH2 0x19C8 PUSH2 0x8BB JUMP JUMPDEST JUMPDEST PUSH2 0x19D5 DUP14 DUP3 DUP15 ADD PUSH2 0xA91 JUMP JUMPDEST SWAP3 POP POP PUSH2 0x120 DUP12 ADD CALLDATALOAD PUSH8 0xFFFFFFFFFFFFFFFF DUP2 GT ISZERO PUSH2 0x19F7 JUMPI PUSH2 0x19F6 PUSH2 0x8BB JUMP JUMPDEST JUMPDEST PUSH2 0x1A03 DUP14 DUP3 DUP15 ADD PUSH2 0x1013 JUMP JUMPDEST SWAP2 POP POP SWAP3 SWAP6 SWAP9 SWAP12 SWAP2 SWAP5 SWAP8 SWAP11 POP SWAP3 SWAP6 SWAP9 POP JUMP JUMPDEST PUSH0 DUP1 PUSH0 DUP1 PUSH0 DUP1 PUSH1 0xA0 DUP8 DUP10 SUB SLT ISZERO PUSH2 0x1A2F JUMPI PUSH2 0x1A2E PUSH2 0x8B7 JUMP JUMPDEST JUMPDEST PUSH0 PUSH2 0x1A3C DUP10 DUP3 DUP11 ADD PUSH2 0x8E1 JUMP JUMPDEST SWAP7 POP POP PUSH1 0x20 PUSH2 0x1A4D DUP10 DUP3 DUP11 ADD PUSH2 0x914 JUMP JUMPDEST SWAP6 POP POP PUSH1 0x40 PUSH2 0x1A5E DUP10 DUP3 DUP11 ADD PUSH2 0x914 JUMP JUMPDEST SWAP5 POP POP PUSH1 0x60 PUSH2 0x1A6F DUP10 DUP3 DUP11 ADD PUSH2 0x96E JUMP JUMPDEST SWAP4 POP POP PUSH1 0x80 DUP8 ADD CALLDATALOAD PUSH8 0xFFFFFFFFFFFFFFFF DUP2 GT ISZERO PUSH2 0x1A90 JUMPI PUSH2 0x1A8F PUSH2 0x8BB JUMP JUMPDEST JUMPDEST PUSH2 0x1A9C DUP10 DUP3 DUP11 ADD PUSH2 0xC80 JUMP JUMPDEST SWAP3 POP SWAP3 POP POP SWAP3 SWAP6 POP SWAP3 SWAP6 POP SWAP3 SWAP6 JUMP JUMPDEST PUSH0 DUP1 PUSH0 DUP1 PUSH0 DUP1 PUSH0 DUP1 PUSH0 PUSH2 0x120 DUP11 DUP13 SUB SLT ISZERO PUSH2 0x1AC9 JUMPI PUSH2 0x1AC8 PUSH2 0x8B7 JUMP JUMPDEST JUMPDEST PUSH0 PUSH2 0x1AD6 DUP13 DUP3 DUP14 ADD PUSH2 0x8E1 JUMP JUMPDEST SWAP10 POP POP PUSH1 0x20 PUSH2 0x1AE7 DUP13 DUP3 DUP14 ADD PUSH2 0x914 JUMP JUMPDEST SWAP9 POP POP PUSH1 0x40 PUSH2 0x1AF8 DUP13 DUP3 DUP14 ADD PUSH2 0x914 JUMP JUMPDEST SWAP8 POP POP PUSH1 0x60 PUSH2 0x1B09 DUP13 DUP3 DUP14 ADD PUSH2 0x96E JUMP JUMPDEST SWAP7 POP POP PUSH1 0x80 DUP11 ADD CALLDATALOAD PUSH8 0xFFFFFFFFFFFFFFFF DUP2 GT ISZERO PUSH2 0x1B2A JUMPI PUSH2 0x1B29 PUSH2 0x8BB JUMP JUMPDEST JUMPDEST PUSH2 0x1B36 DUP13 DUP3 DUP14 ADD PUSH2 0xA91 JUMP JUMPDEST SWAP6 POP POP PUSH1 0xA0 DUP11 ADD CALLDATALOAD PUSH8 0xFFFFFFFFFFFFFFFF DUP2 GT ISZERO PUSH2 0x1B57 JUMPI PUSH2 0x1B56 PUSH2 0x8BB JUMP JUMPDEST JUMPDEST PUSH2 0x1B63 DUP13 DUP3 DUP14 ADD PUSH2 0xA91 JUMP JUMPDEST SWAP5 POP POP PUSH1 0xC0 DUP11 ADD CALLDATALOAD PUSH8 0xFFFFFFFFFFFFFFFF DUP2 GT ISZERO PUSH2 0x1B84 JUMPI PUSH2 0x1B83 PUSH2 0x8BB JUMP JUMPDEST JUMPDEST PUSH2 0x1B90 DUP13 DUP3 DUP14 ADD PUSH2 0xA91 JUMP JUMPDEST SWAP4 POP POP PUSH1 0xE0 DUP11 ADD CALLDATALOAD PUSH8 0xFFFFFFFFFFFFFFFF DUP2 GT ISZERO PUSH2 0x1BB1 JUMPI PUSH2 0x1BB0 PUSH2 0x8BB JUMP JUMPDEST JUMPDEST PUSH2 0x1BBD DUP13 DUP3 DUP14 ADD PUSH2 0xA91 JUMP JUMPDEST SWAP3 POP POP PUSH2 0x100 DUP11 ADD CALLDATALOAD PUSH8 0xFFFFFFFFFFFFFFFF DUP2 GT ISZERO PUSH2 0x1BDF JUMPI PUSH2 0x1BDE PUSH2 0x8BB JUMP JUMPDEST JUMPDEST PUSH2 0x1BEB DUP13 DUP3 DUP14 ADD PUSH2 0xA91 JUMP JUMPDEST SWAP2 POP POP SWAP3 SWAP6 SWAP9 POP SWAP3 SWAP6 SWAP9 POP SWAP3 SWAP6 SWAP9 JUMP JUMPDEST PUSH0 DUP1 PUSH0 DUP1 PUSH0 DUP1 PUSH0 DUP1 PUSH0 DUP1 PUSH2 0x140 DUP12 DUP14 SUB SLT ISZERO PUSH2 0x1C1A JUMPI PUSH2 0x1C19 PUSH2 0x8B7 JUMP JUMPDEST JUMPDEST PUSH0 PUSH2 0x1C27 DUP14 DUP3 DUP15 ADD PUSH2 0x8E1 JUMP JUMPDEST SWAP11 POP POP PUSH1 0x20 PUSH2 0x1C38 DUP14 DUP3 DUP15 ADD PUSH2 0x914 JUMP JUMPDEST SWAP10 POP POP PUSH1 0x40 PUSH2 0x1C49 DUP14 DUP3 DUP15 ADD PUSH2 0x914 JUMP JUMPDEST SWAP9 POP POP PUSH1 0x60 PUSH2 0x1C5A DUP14 DUP3 DUP15 ADD PUSH2 0x96E JUMP JUMPDEST SWAP8 POP POP PUSH1 0x80 DUP12 ADD CALLDATALOAD PUSH8 0xFFFFFFFFFFFFFFFF DUP2 GT ISZERO PUSH2 0x1C7B JUMPI PUSH2 0x1C7A PUSH2 0x8BB JUMP JUMPDEST JUMPDEST PUSH2 0x1C87 DUP14 DUP3 DUP15 ADD PUSH2 0xA91 JUMP JUMPDEST SWAP7 POP POP PUSH1 0xA0 DUP12 ADD CALLDATALOAD PUSH8 0xFFFFFFFFFFFFFFFF DUP2 GT ISZERO PUSH2 0x1CA8 JUMPI PUSH2 0x1CA7 PUSH2 0x8BB JUMP JUMPDEST JUMPDEST PUSH2 0x1CB4 DUP14 DUP3 DUP15 ADD PUSH2 0xA91 JUMP JUMPDEST SWAP6 POP POP PUSH1 0xC0 DUP12 ADD CALLDATALOAD PUSH8 0xFFFFFFFFFFFFFFFF DUP2 GT ISZERO PUSH2 0x1CD5 JUMPI PUSH2 0x1CD4 PUSH2 0x8BB JUMP JUMPDEST JUMPDEST PUSH2 0x1CE1 DUP14 DUP3 DUP15 ADD PUSH2 0xA91 JUMP JUMPDEST SWAP5 POP POP PUSH1 0xE0 DUP12 ADD CALLDATALOAD PUSH8 0xFFFFFFFFFFFFFFFF DUP2 GT ISZERO PUSH2 0x1D02 JUMPI PUSH2 0x1D01 PUSH2 0x8BB JUMP JUMPDEST JUMPDEST PUSH2 0x1D0E DUP14 DUP3 DUP15 ADD PUSH2 0xA91 JUMP JUMPDEST SWAP4 POP POP PUSH2 0x100 DUP12 ADD CALLDATALOAD PUSH8 0xFFFFFFFFFFFFFFFF DUP2 GT ISZERO PUSH2 0x1D30 JUMPI PUSH2 0x1D2F PUSH2 0x8BB JUMP JUMPDEST JUMPDEST PUSH2 0x1D3C DUP14 DUP3 DUP15 ADD PUSH2 0xA91 JUMP JUMPDEST SWAP3 POP POP PUSH2 0x120 DUP12 ADD CALLDATALOAD PUSH8 0xFFFFFFFFFFFFFFFF DUP2 GT ISZERO PUSH2 0x1D5E JUMPI PUSH2 0x1D5D PUSH2 0x8BB JUMP JUMPDEST JUMPDEST PUSH2 0x1D6A DUP14 DUP3 DUP15 ADD PUSH2 0xA91 JUMP JUMPDEST SWAP2 POP POP SWAP3 SWAP6 SWAP9 SWAP12 SWAP2 SWAP5 SWAP8 SWAP11 POP SWAP3 SWAP6 SWAP9 POP JUMP JUMPDEST PUSH0 DUP1 PUSH0 DUP1 PUSH0 DUP1 PUSH0 DUP1 PUSH0 PUSH2 0x120 DUP11 DUP13 SUB SLT ISZERO PUSH2 0x1D9A JUMPI PUSH2 0x1D99 PUSH2 0x8B7 JUMP JUMPDEST JUMPDEST PUSH0 PUSH2 0x1DA7 DUP13 DUP3 DUP14 ADD PUSH2 0x8E1 JUMP JUMPDEST SWAP10 POP POP PUSH1 0x20 PUSH2 0x1DB8 DUP13 DUP3 DUP14 ADD PUSH2 0x914 JUMP JUMPDEST SWAP9 POP POP PUSH1 0x40 PUSH2 0x1DC9 DUP13 DUP3 DUP14 ADD PUSH2 0x914 JUMP JUMPDEST SWAP8 POP POP PUSH1 0x60 PUSH2 0x1DDA DUP13 DUP3 DUP14 ADD PUSH2 0x96E JUMP JUMPDEST SWAP7 POP POP PUSH1 0x80 PUSH2 0x1DEB DUP13 DUP3 DUP14 ADD PUSH2 0xE91 JUMP JUMPDEST SWAP6 POP POP PUSH1 0xA0 DUP11 ADD CALLDATALOAD PUSH8 0xFFFFFFFFFFFFFFFF DUP2 GT ISZERO PUSH2 0x1E0C JUMPI PUSH2 0x1E0B PUSH2 0x8BB JUMP JUMPDEST JUMPDEST PUSH2 0x1E18 DUP13 DUP3 DUP14 ADD PUSH2 0xA91 JUMP JUMPDEST SWAP5 POP POP PUSH1 0xC0 DUP11 ADD CALLDATALOAD PUSH8 0xFFFFFFFFFFFFFFFF DUP2 GT ISZERO PUSH2 0x1E39 JUMPI PUSH2 0x1E38 PUSH2 0x8BB JUMP JUMPDEST JUMPDEST PUSH2 0x1E45 DUP13 DUP3 DUP14 ADD PUSH2 0xA91 JUMP JUMPDEST SWAP4 POP POP PUSH1 0xE0 DUP11 ADD CALLDATALOAD PUSH8 0xFFFFFFFFFFFFFFFF DUP2 GT ISZERO PUSH2 0x1E66 JUMPI PUSH2 0x1E65 PUSH2 0x8BB JUMP JUMPDEST JUMPDEST PUSH2 0x1E72 DUP13 DUP3 DUP14 ADD PUSH2 0x1544 JUMP JUMPDEST SWAP3 POP POP PUSH2 0x100 DUP11 ADD CALLDATALOAD PUSH8 0xFFFFFFFFFFFFFFFF DUP2 GT ISZERO PUSH2 0x1E94 JUMPI PUSH2 0x1E93 PUSH2 0x8BB JUMP JUMPDEST JUMPDEST PUSH2 0x1EA0 DUP13 DUP3 DUP14 ADD PUSH2 0x1013 JUMP JUMPDEST SWAP2 POP POP SWAP3 SWAP6 SWAP9 POP SWAP3 SWAP6 SWAP9 POP SWAP3 SWAP6 SWAP9 JUMP JUMPDEST PUSH0 DUP1 DUP4 PUSH1 0x1F DUP5 ADD SLT PUSH2 0x1EC5 JUMPI PUSH2 0x1EC4 PUSH2 0x982 JUMP JUMPDEST JUMPDEST DUP3 CALLDATALOAD SWAP1 POP PUSH8 0xFFFFFFFFFFFFFFFF DUP2 GT ISZERO PUSH2 0x1EE2 JUMPI PUSH2 0x1EE1 PUSH2 0xC78 JUMP JUMPDEST JUMPDEST PUSH1 0x20 DUP4 ADD SWAP2 POP DUP4 PUSH1 0x20 DUP3 MUL DUP4 ADD GT ISZERO PUSH2 0x1EFE JUMPI PUSH2 0x1EFD PUSH2 0xC7C JUMP JUMPDEST JUMPDEST SWAP3 POP SWAP3 SWAP1 POP JUMP JUMPDEST PUSH0 DUP1 PUSH0 DUP1 PUSH0 DUP1 PUSH0 DUP1 PUSH0 DUP1 PUSH1 0xE0 DUP12 DUP14 SUB SLT ISZERO PUSH2 0x1F23 JUMPI PUSH2 0x1F22 PUSH2 0x8B7 JUMP JUMPDEST JUMPDEST PUSH0 PUSH2 0x1F30 DUP14 DUP3 DUP15 ADD PUSH2 0x8E1 JUMP JUMPDEST SWAP11 POP POP PUSH1 0x20 PUSH2 0x1F41 DUP14 DUP3 DUP15 ADD PUSH2 0x914 JUMP JUMPDEST SWAP10 POP POP PUSH1 0x40 PUSH2 0x1F52 DUP14 DUP3 DUP15 ADD PUSH2 0x914 JUMP JUMPDEST SWAP9 POP POP PUSH1 0x60 PUSH2 0x1F63 DUP14 DUP3 DUP15 ADD PUSH2 0x96E JUMP JUMPDEST SWAP8 POP POP PUSH1 0x80 DUP12 ADD CALLDATALOAD PUSH8 0xFFFFFFFFFFFFFFFF DUP2 GT ISZERO PUSH2 0x1F84 JUMPI PUSH2 0x1F83 PUSH2 0x8BB JUMP JUMPDEST JUMPDEST PUSH2 0x1F90 DUP14 DUP3 DUP15 ADD PUSH2 0xC80 JUMP JUMPDEST SWAP7 POP SWAP7 POP POP PUSH1 0xA0 DUP12 ADD CALLDATALOAD PUSH8 0xFFFFFFFFFFFFFFFF DUP2 GT ISZERO PUSH2 0x1FB3 JUMPI PUSH2 0x1FB2 PUSH2 0x8BB JUMP JUMPDEST JUMPDEST PUSH2 0x1FBF DUP14 DUP3 DUP15 ADD PUSH2 0xC80 JUMP JUMPDEST SWAP5 POP SWAP5 POP POP PUSH1 0xC0 DUP12 ADD CALLDATALOAD PUSH8 0xFFFFFFFFFFFFFFFF DUP2 GT ISZERO PUSH2 0x1FE2 JUMPI PUSH2 0x1FE1 PUSH2 0x8BB JUMP JUMPDEST JUMPDEST PUSH2 0x1FEE DUP14 DUP3 DUP15 ADD PUSH2 0x1EB0 JUMP JUMPDEST SWAP3 POP SWAP3 POP POP SWAP3 SWAP6 SWAP9 SWAP12 SWAP2 SWAP5 SWAP8 SWAP11 POP SWAP3 SWAP6 SWAP9 POP JUMP JUMPDEST PUSH0 DUP1 PUSH0 DUP1 PUSH0 DUP1 PUSH0 DUP1 PUSH0 DUP1 PUSH2 0x120 DUP12 DUP14 SUB SLT ISZERO PUSH2 0x2021 JUMPI PUSH2 0x2020 PUSH2 0x8B7 JUMP JUMPDEST JUMPDEST PUSH0 PUSH2 0x202E DUP14 DUP3 DUP15 ADD PUSH2 0x8E1 JUMP JUMPDEST SWAP11 POP POP PUSH1 0x20 PUSH2 0x203F DUP14 DUP3 DUP15 ADD PUSH2 0x914 JUMP JUMPDEST SWAP10 POP POP PUSH1 0x40 PUSH2 0x2050 DUP14 DUP3 DUP15 ADD PUSH2 0x914 JUMP JUMPDEST SWAP9 POP POP PUSH1 0x60 PUSH2 0x2061 DUP14 DUP3 DUP15 ADD PUSH2 0x96E JUMP JUMPDEST SWAP8 POP POP PUSH1 0x80 PUSH2 0x2072 DUP14 DUP3 DUP15 ADD PUSH2 0xE91 JUMP JUMPDEST SWAP7 POP POP PUSH1 0xA0 PUSH2 0x2083 DUP14 DUP3 DUP15 ADD PUSH2 0xE91 JUMP JUMPDEST SWAP6 POP POP PUSH1 0xC0 PUSH2 0x2094 DUP14 DUP3 DUP15 ADD PUSH2 0xE91 JUMP JUMPDEST SWAP5 POP POP PUSH1 0xE0 PUSH2 0x20A5 DUP14 DUP3 DUP15 ADD PUSH2 0xE91 JUMP JUMPDEST SWAP4 POP POP PUSH2 0x100 DUP12 ADD CALLDATALOAD PUSH8 0xFFFFFFFFFFFFFFFF DUP2 GT ISZERO PUSH2 0x20C7 JUMPI PUSH2 0x20C6 PUSH2 0x8BB JUMP JUMPDEST JUMPDEST PUSH2 0x20D3 DUP14 DUP3 DUP15 ADD PUSH2 0xC80 JUMP JUMPDEST SWAP3 POP SWAP3 POP POP SWAP3 SWAP6 SWAP9 SWAP12 SWAP2 SWAP5 SWAP8 SWAP11 POP SWAP3 SWAP6 SWAP9 POP JUMP JUMPDEST PUSH0 DUP1 PUSH0 DUP1 PUSH0 DUP1 PUSH0 PUSH1 0xC0 DUP9 DUP11 SUB SLT ISZERO PUSH2 0x2102 JUMPI PUSH2 0x2101 PUSH2 0x8B7 JUMP JUMPDEST JUMPDEST PUSH0 PUSH2 0x210F DUP11 DUP3 DUP12 ADD PUSH2 0x8E1 JUMP JUMPDEST SWAP8 POP POP PUSH1 0x20 PUSH2 0x2120 DUP11 DUP3 DUP12 ADD PUSH2 0x914 JUMP JUMPDEST SWAP7 POP POP PUSH1 0x40 PUSH2 0x2131 DUP11 DUP3 DUP12 ADD PUSH2 0x914 JUMP JUMPDEST SWAP6 POP POP PUSH1 0x60 PUSH2 0x2142 DUP11 DUP3 DUP12 ADD PUSH2 0x96E JUMP JUMPDEST SWAP5 POP POP PUSH1 0x80 PUSH2 0x2153 DUP11 DUP3 DUP12 ADD PUSH2 0xC64 JUMP JUMPDEST SWAP4 POP POP PUSH1 0xA0 DUP9 ADD CALLDATALOAD PUSH8 0xFFFFFFFFFFFFFFFF DUP2 GT ISZERO PUSH2 0x2174 JUMPI PUSH2 0x2173 PUSH2 0x8BB JUMP JUMPDEST JUMPDEST PUSH2 0x2180 DUP11 DUP3 DUP12 ADD PUSH2 0x1190 JUMP JUMPDEST SWAP3 POP SWAP3 POP POP SWAP3 SWAP6 SWAP9 SWAP2 SWAP5 SWAP8 POP SWAP3 SWAP6 POP JUMP JUMPDEST PUSH0 DUP1 PUSH0 DUP1 PUSH0 DUP1 PUSH0 DUP1 PUSH0 DUP1 PUSH0 PUSH2 0x160 DUP13 DUP15 SUB SLT ISZERO PUSH2 0x21B1 JUMPI PUSH2 0x21B0 PUSH2 0x8B7 JUMP JUMPDEST JUMPDEST PUSH0 PUSH2 0x21BE DUP15 DUP3 DUP16 ADD PUSH2 0x8E1 JUMP JUMPDEST SWAP12 POP POP PUSH1 0x20 PUSH2 0x21CF DUP15 DUP3 DUP16 ADD PUSH2 0x914 JUMP JUMPDEST SWAP11 POP POP PUSH1 0x40 PUSH2 0x21E0 DUP15 DUP3 DUP16 ADD PUSH2 0x914 JUMP JUMPDEST SWAP10 POP POP PUSH1 0x60 PUSH2 0x21F1 DUP15 DUP3 DUP16 ADD PUSH2 0x96E JUMP JUMPDEST SWAP9 POP POP PUSH1 0x80 PUSH2 0x2202 DUP15 DUP3 DUP16 ADD PUSH2 0xC64 JUMP JUMPDEST SWAP8 POP POP PUSH1 0xA0 PUSH2 0x2213 DUP15 DUP3 DUP16 ADD PUSH2 0xC64 JUMP JUMPDEST SWAP7 POP POP PUSH1 0xC0 PUSH2 0x2224 DUP15 DUP3 DUP16 ADD PUSH2 0xC64 JUMP JUMPDEST SWAP6 POP POP PUSH1 0xE0 DUP13 ADD CALLDATALOAD PUSH8 0xFFFFFFFFFFFFFFFF DUP2 GT ISZERO PUSH2 0x2245 JUMPI PUSH2 0x2244 PUSH2 0x8BB JUMP JUMPDEST JUMPDEST PUSH2 0x2251 DUP15 DUP3 DUP16 ADD PUSH2 0xA91 JUMP JUMPDEST SWAP5 POP POP PUSH2 0x100 DUP13 ADD CALLDATALOAD PUSH8 0xFFFFFFFFFFFFFFFF DUP2 GT ISZERO PUSH2 0x2273 JUMPI PUSH2 0x2272 PUSH2 0x8BB JUMP JUMPDEST JUMPDEST PUSH2 0x227F DUP15 DUP3 DUP16 ADD PUSH2 0xA91 JUMP JUMPDEST SWAP4 POP POP PUSH2 0x120 DUP13 ADD CALLDATALOAD PUSH8 0xFFFFFFFFFFFFFFFF DUP2 GT ISZERO PUSH2 0x22A1 JUMPI PUSH2 0x22A0 PUSH2 0x8BB JUMP JUMPDEST JUMPDEST PUSH2 0x22AD DUP15 DUP3 DUP16 ADD PUSH2 0xA91 JUMP JUMPDEST SWAP3 POP POP PUSH2 0x140 DUP13 ADD CALLDATALOAD PUSH8 0xFFFFFFFFFFFFFFFF DUP2 GT ISZERO PUSH2 0x22CF JUMPI PUSH2 0x22CE PUSH2 0x8BB JUMP JUMPDEST JUMPDEST PUSH2 0x22DB DUP15 DUP3 DUP16 ADD PUSH2 0xA91 JUMP JUMPDEST SWAP2 POP POP SWAP3 SWAP6 SWAP9 SWAP12 POP SWAP3 SWAP6 SWAP9 SWAP12 SWAP1 SWAP4 SWAP7 SWAP10 POP JUMP INVALID LOG2 PUSH5 0x6970667358 0x22 SLT KECCAK256 0x4A PUSH11 0x6271B592829E5F9EEF5D6E RETURNDATACOPY PUSH32 0xF34D6B7FD9386FEF5610051CA791B0D56964736F6C6343000816003300000000 "
		},
		"gasEstimates": {
			"creation": {
				"codeDepositCost": "1799200",
				"executionCost": "1896",
				"totalCost": "1801096"
			},
			"external": {
				"activate(uint8,bytes32,bytes32,address)": "infinite",
				"addToCustodyCustodians(uint8,bytes32,bytes32,address,string,string,string,string,string[])": "infinite",
				"addToCustodyWhiteList(uint8,bytes32,bytes32,address,string,string,string,string,string[])": "infinite",
				"approveCustodyTransaction(uint8,bytes32,bytes32,address,string,string)": "infinite",
				"assignRole(uint8,bytes32,bytes32,address,uint256,string)": "infinite",
				"blacklistPermissions(uint8,bytes32,bytes32,address,uint256,string)": "infinite",
				"blacklistRolePermission(uint8,bytes32,bytes32,address,uint256,string)": "infinite",
				"cancelIdentityRecordsVerifyRequest(uint8,bytes32,bytes32,address,uint256)": "infinite",
				"claimCouncilor(uint8,bytes32,bytes32,address,string,string,string,string,string,string)": "infinite",
				"claimRewards(uint8,bytes32,bytes32,address)": "infinite",
				"claimSpendingPool(uint8,bytes32,bytes32,address,string)": "infinite",
				"claimUndelegation(uint8,bytes32,bytes32,address,uint256)": "infinite",
				"createCustody(uint8,bytes32,bytes32,address,uint256,string,string,bool[],string[])": "infinite",
				"createRole(uint8,bytes32,bytes32,address,string,string)": "infinite",
				"declineCustodyTransaction(uint8,bytes32,bytes32,address,string,string)": "infinite",
				"delegate(uint8,bytes32,bytes32,address,string,string)": "infinite",
				"deleteIdentityRecord(uint8,bytes32,bytes32,address,string[])": "infinite",
				"depositSpendingPool(uint8,bytes32,bytes32,address,string,string)": "infinite",
				"dropCustodyCustodians(uint8,bytes32,bytes32,address,string,string,string,string)": "infinite",
				"dropCustodyWhiteList(uint8,bytes32,bytes32,address,string,string,string,string)": "infinite",
				"handleIdentityRecordsVerifyRequest(uint8,bytes32,bytes32,address,uint256,bool)": "infinite",
				"pause(uint8,bytes32,bytes32,address)": "infinite",
				"registerDelegator(uint8,bytes32,bytes32,address)": "infinite",
				"registerIdentityRecords(uint8,bytes32,bytes32,address,string)": "infinite",
				"registerSpendingPoolBeneficiary(uint8,bytes32,bytes32,address,string)": "infinite",
				"removeBlacklistRolePermission(uint8,bytes32,bytes32,address,uint256,string)": "infinite",
				"removeFromCustodyCustodians(uint8,bytes32,bytes32,address,string,string,string,string,string)": "infinite",
				"removeFromCustodyWhiteList(uint8,bytes32,bytes32,address,string,string,string,string,string)": "infinite",
				"removeWhitelistRolePermission(uint8,bytes32,bytes32,address,uint256,string)": "infinite",
				"requestIdentityRecordsVerify(uint8,bytes32,bytes32,address,string,string,uint256[])": "infinite",
				"setCompoundInfo(uint8,bytes32,bytes32,address,bool,string[])": "infinite",
				"setExecutionFee(uint8,bytes32,bytes32,address,uint256,uint256,uint256,uint256,string)": "infinite",
				"setNetworkProperties(uint8,bytes32,bytes32,address,bool[],uint256[],string[],string[])": "infinite",
				"submitEvidence(uint8,bytes32,bytes32,address,int256,int256,int256,string)": "infinite",
				"unassignRole(uint8,bytes32,bytes32,address,uint256,string)": "infinite",
				"undelegate(uint8,bytes32,bytes32,address,string,string)": "infinite",
				"unpause(uint8,bytes32,bytes32,address)": "infinite",
				"upsertStakingPool(uint8,bytes32,bytes32,address,bool,string,string)": "infinite",
				"upsertTokenAlias(uint8,bytes32,bytes32,address,bool,uint32,string,string,string,string[])": "infinite",
				"upsertTokenRate(uint8,bytes32,bytes32,address,bool,bool,bool,string,string,string,string)": "infinite",
				"voteProposal(uint8,bytes32,bytes32,address,uint256,uint256,string)": "infinite",
				"whitelistPermissions(uint8,bytes32,bytes32,address,uint256,string)": "infinite",
				"whitelistRolePermission(uint8,bytes32,bytes32,address,uint256,string)": "infinite"
			}
		},
		"methodIdentifiers": {
			"activate(uint8,bytes32,bytes32,address)": "a1374dc2",
			"addToCustodyCustodians(uint8,bytes32,bytes32,address,string,string,string,string,string[])": "9c4f31a9",
			"addToCustodyWhiteList(uint8,bytes32,bytes32,address,string,string,string,string,string[])": "25d1857d",
			"approveCustodyTransaction(uint8,bytes32,bytes32,address,string,string)": "e6d41e78",
			"assignRole(uint8,bytes32,bytes32,address,uint256,string)": "83b3d393",
			"blacklistPermissions(uint8,bytes32,bytes32,address,uint256,string)": "675ed828",
			"blacklistRolePermission(uint8,bytes32,bytes32,address,uint256,string)": "7e7595fe",
			"cancelIdentityRecordsVerifyRequest(uint8,bytes32,bytes32,address,uint256)": "9b66f097",
			"claimCouncilor(uint8,bytes32,bytes32,address,string,string,string,string,string,string)": "9dd85dbf",
			"claimRewards(uint8,bytes32,bytes32,address)": "9e796524",
			"claimSpendingPool(uint8,bytes32,bytes32,address,string)": "efeed4a0",
			"claimUndelegation(uint8,bytes32,bytes32,address,uint256)": "505b0330",
			"createCustody(uint8,bytes32,bytes32,address,uint256,string,string,bool[],string[])": "d486e9de",
			"createRole(uint8,bytes32,bytes32,address,string,string)": "7b0fadab",
			"declineCustodyTransaction(uint8,bytes32,bytes32,address,string,string)": "21ebd09e",
			"delegate(uint8,bytes32,bytes32,address,string,string)": "4563230c",
			"deleteIdentityRecord(uint8,bytes32,bytes32,address,string[])": "2ac0ca03",
			"depositSpendingPool(uint8,bytes32,bytes32,address,string,string)": "9fff5508",
			"dropCustodyCustodians(uint8,bytes32,bytes32,address,string,string,string,string)": "07d33244",
			"dropCustodyWhiteList(uint8,bytes32,bytes32,address,string,string,string,string)": "4db07a4e",
			"handleIdentityRecordsVerifyRequest(uint8,bytes32,bytes32,address,uint256,bool)": "2facbfe8",
			"pause(uint8,bytes32,bytes32,address)": "1371cf19",
			"registerDelegator(uint8,bytes32,bytes32,address)": "99db185d",
			"registerIdentityRecords(uint8,bytes32,bytes32,address,string)": "bc05f106",
			"registerSpendingPoolBeneficiary(uint8,bytes32,bytes32,address,string)": "7ab7eecf",
			"removeBlacklistRolePermission(uint8,bytes32,bytes32,address,uint256,string)": "45e2144c",
			"removeFromCustodyCustodians(uint8,bytes32,bytes32,address,string,string,string,string,string)": "8ec62788",
			"removeFromCustodyWhiteList(uint8,bytes32,bytes32,address,string,string,string,string,string)": "b99abc7d",
			"removeWhitelistRolePermission(uint8,bytes32,bytes32,address,uint256,string)": "e9830bd8",
			"requestIdentityRecordsVerify(uint8,bytes32,bytes32,address,string,string,uint256[])": "f7c51612",
			"setCompoundInfo(uint8,bytes32,bytes32,address,bool,string[])": "fb1257e6",
			"setExecutionFee(uint8,bytes32,bytes32,address,uint256,uint256,uint256,uint256,string)": "fa02785e",
			"setNetworkProperties(uint8,bytes32,bytes32,address,bool[],uint256[],string[],string[])": "3a91d2ba",
			"submitEvidence(uint8,bytes32,bytes32,address,int256,int256,int256,string)": "33104ff7",
			"unassignRole(uint8,bytes32,bytes32,address,uint256,string)": "2fa24c7a",
			"undelegate(uint8,bytes32,bytes32,address,string,string)": "d8e05398",
			"unpause(uint8,bytes32,bytes32,address)": "b9179894",
			"upsertStakingPool(uint8,bytes32,bytes32,address,bool,string,string)": "1f0da7b4",
			"upsertTokenAlias(uint8,bytes32,bytes32,address,bool,uint32,string,string,string,string[])": "59122e45",
			"upsertTokenRate(uint8,bytes32,bytes32,address,bool,bool,bool,string,string,string,string)": "fb7e4c17",
			"voteProposal(uint8,bytes32,bytes32,address,uint256,uint256,string)": "24d03a8b",
			"whitelistPermissions(uint8,bytes32,bytes32,address,uint256,string)": "4db4bc0b",
			"whitelistRolePermission(uint8,bytes32,bytes32,address,uint256,string)": "557f0e63"
		}
	},
	"abi": [
		{
			"inputs": [
				{
					"internalType": "uint8",
					"name": "v",
					"type": "uint8"
				},
				{
					"internalType": "bytes32",
					"name": "r",
					"type": "bytes32"
				},
				{
					"internalType": "bytes32",
					"name": "s",
					"type": "bytes32"
				},
				{
					"internalType": "address",
					"name": "sender",
					"type": "address"
				}
			],
			"name": "activate",
			"outputs": [],
			"stateMutability": "nonpayable",
			"type": "function"
		},
		{
			"inputs": [
				{
					"internalType": "uint8",
					"name": "v",
					"type": "uint8"
				},
				{
					"internalType": "bytes32",
					"name": "r",
					"type": "bytes32"
				},
				{
					"internalType": "bytes32",
					"name": "s",
					"type": "bytes32"
				},
				{
					"internalType": "address",
					"name": "sender",
					"type": "address"
				},
				{
					"internalType": "string",
					"name": "oldKey",
					"type": "string"
				},
				{
					"internalType": "string",
					"name": "newKey",
					"type": "string"
				},
				{
					"internalType": "string",
					"name": "next",
					"type": "string"
				},
				{
					"internalType": "string",
					"name": "target",
					"type": "string"
				},
				{
					"internalType": "string[]",
					"name": "newAddr",
					"type": "string[]"
				}
			],
			"name": "addToCustodyCustodians",
			"outputs": [],
			"stateMutability": "nonpayable",
			"type": "function"
		},
		{
			"inputs": [
				{
					"internalType": "uint8",
					"name": "v",
					"type": "uint8"
				},
				{
					"internalType": "bytes32",
					"name": "r",
					"type": "bytes32"
				},
				{
					"internalType": "bytes32",
					"name": "s",
					"type": "bytes32"
				},
				{
					"internalType": "address",
					"name": "sender",
					"type": "address"
				},
				{
					"internalType": "string",
					"name": "oldKey",
					"type": "string"
				},
				{
					"internalType": "string",
					"name": "newKey",
					"type": "string"
				},
				{
					"internalType": "string",
					"name": "next",
					"type": "string"
				},
				{
					"internalType": "string",
					"name": "target",
					"type": "string"
				},
				{
					"internalType": "string[]",
					"name": "newAddr",
					"type": "string[]"
				}
			],
			"name": "addToCustodyWhiteList",
			"outputs": [],
			"stateMutability": "nonpayable",
			"type": "function"
		},
		{
			"inputs": [
				{
					"internalType": "uint8",
					"name": "v",
					"type": "uint8"
				},
				{
					"internalType": "bytes32",
					"name": "r",
					"type": "bytes32"
				},
				{
					"internalType": "bytes32",
					"name": "s",
					"type": "bytes32"
				},
				{
					"internalType": "address",
					"name": "sender",
					"type": "address"
				},
				{
					"internalType": "string",
					"name": "to",
					"type": "string"
				},
				{
					"internalType": "string",
					"name": "hash",
					"type": "string"
				}
			],
			"name": "approveCustodyTransaction",
			"outputs": [],
			"stateMutability": "nonpayable",
			"type": "function"
		},
		{
			"inputs": [
				{
					"internalType": "uint8",
					"name": "v",
					"type": "uint8"
				},
				{
					"internalType": "bytes32",
					"name": "r",
					"type": "bytes32"
				},
				{
					"internalType": "bytes32",
					"name": "s",
					"type": "bytes32"
				},
				{
					"internalType": "address",
					"name": "sender",
					"type": "address"
				},
				{
					"internalType": "uint256",
					"name": "roleid",
					"type": "uint256"
				},
				{
					"internalType": "string",
					"name": "controller",
					"type": "string"
				}
			],
			"name": "assignRole",
			"outputs": [],
			"stateMutability": "nonpayable",
			"type": "function"
		},
		{
			"inputs": [
				{
					"internalType": "uint8",
					"name": "v",
					"type": "uint8"
				},
				{
					"internalType": "bytes32",
					"name": "r",
					"type": "bytes32"
				},
				{
					"internalType": "bytes32",
					"name": "s",
					"type": "bytes32"
				},
				{
					"internalType": "address",
					"name": "sender",
					"type": "address"
				},
				{
					"internalType": "uint256",
					"name": "permission",
					"type": "uint256"
				},
				{
					"internalType": "string",
					"name": "controlledAddr",
					"type": "string"
				}
			],
			"name": "blacklistPermissions",
			"outputs": [],
			"stateMutability": "nonpayable",
			"type": "function"
		},
		{
			"inputs": [
				{
					"internalType": "uint8",
					"name": "v",
					"type": "uint8"
				},
				{
					"internalType": "bytes32",
					"name": "r",
					"type": "bytes32"
				},
				{
					"internalType": "bytes32",
					"name": "s",
					"type": "bytes32"
				},
				{
					"internalType": "address",
					"name": "sender",
					"type": "address"
				},
				{
					"internalType": "uint256",
					"name": "permission",
					"type": "uint256"
				},
				{
					"internalType": "string",
					"name": "roleIdentifier",
					"type": "string"
				}
			],
			"name": "blacklistRolePermission",
			"outputs": [],
			"stateMutability": "nonpayable",
			"type": "function"
		},
		{
			"inputs": [
				{
					"internalType": "uint8",
					"name": "v",
					"type": "uint8"
				},
				{
					"internalType": "bytes32",
					"name": "r",
					"type": "bytes32"
				},
				{
					"internalType": "bytes32",
					"name": "s",
					"type": "bytes32"
				},
				{
					"internalType": "address",
					"name": "sender",
					"type": "address"
				},
				{
					"internalType": "uint256",
					"name": "verifyRequestId",
					"type": "uint256"
				}
			],
			"name": "cancelIdentityRecordsVerifyRequest",
			"outputs": [],
			"stateMutability": "nonpayable",
			"type": "function"
		},
		{
			"inputs": [
				{
					"internalType": "uint8",
					"name": "v",
					"type": "uint8"
				},
				{
					"internalType": "bytes32",
					"name": "r",
					"type": "bytes32"
				},
				{
					"internalType": "bytes32",
					"name": "s",
					"type": "bytes32"
				},
				{
					"internalType": "address",
					"name": "sender",
					"type": "address"
				},
				{
					"internalType": "string",
					"name": "moniker",
					"type": "string"
				},
				{
					"internalType": "string",
					"name": "username",
					"type": "string"
				},
				{
					"internalType": "string",
					"name": "description",
					"type": "string"
				},
				{
					"internalType": "string",
					"name": "social",
					"type": "string"
				},
				{
					"internalType": "string",
					"name": "contact",
					"type": "string"
				},
				{
					"internalType": "string",
					"name": "avatar",
					"type": "string"
				}
			],
			"name": "claimCouncilor",
			"outputs": [],
			"stateMutability": "nonpayable",
			"type": "function"
		},
		{
			"inputs": [
				{
					"internalType": "uint8",
					"name": "v",
					"type": "uint8"
				},
				{
					"internalType": "bytes32",
					"name": "r",
					"type": "bytes32"
				},
				{
					"internalType": "bytes32",
					"name": "s",
					"type": "bytes32"
				},
				{
					"internalType": "address",
					"name": "sender",
					"type": "address"
				}
			],
			"name": "claimRewards",
			"outputs": [],
			"stateMutability": "nonpayable",
			"type": "function"
		},
		{
			"inputs": [
				{
					"internalType": "uint8",
					"name": "v",
					"type": "uint8"
				},
				{
					"internalType": "bytes32",
					"name": "r",
					"type": "bytes32"
				},
				{
					"internalType": "bytes32",
					"name": "s",
					"type": "bytes32"
				},
				{
					"internalType": "address",
					"name": "sender",
					"type": "address"
				},
				{
					"internalType": "string",
					"name": "name",
					"type": "string"
				}
			],
			"name": "claimSpendingPool",
			"outputs": [],
			"stateMutability": "nonpayable",
			"type": "function"
		},
		{
			"inputs": [
				{
					"internalType": "uint8",
					"name": "v",
					"type": "uint8"
				},
				{
					"internalType": "bytes32",
					"name": "r",
					"type": "bytes32"
				},
				{
					"internalType": "bytes32",
					"name": "s",
					"type": "bytes32"
				},
				{
					"internalType": "address",
					"name": "sender",
					"type": "address"
				},
				{
					"internalType": "uint256",
					"name": "undelegationId",
					"type": "uint256"
				}
			],
			"name": "claimUndelegation",
			"outputs": [],
			"stateMutability": "nonpayable",
			"type": "function"
		},
		{
			"inputs": [
				{
					"internalType": "uint8",
					"name": "v",
					"type": "uint8"
				},
				{
					"internalType": "bytes32",
					"name": "r",
					"type": "bytes32"
				},
				{
					"internalType": "bytes32",
					"name": "s",
					"type": "bytes32"
				},
				{
					"internalType": "address",
					"name": "sender",
					"type": "address"
				},
				{
					"internalType": "uint256",
					"name": "custodyMode",
					"type": "uint256"
				},
				{
					"internalType": "string",
					"name": "key",
					"type": "string"
				},
				{
					"internalType": "string",
					"name": "nextController",
					"type": "string"
				},
				{
					"internalType": "bool[]",
					"name": "custodyBoolArr",
					"type": "bool[]"
				},
				{
					"internalType": "string[]",
					"name": "otherParams",
					"type": "string[]"
				}
			],
			"name": "createCustody",
			"outputs": [],
			"stateMutability": "nonpayable",
			"type": "function"
		},
		{
			"inputs": [
				{
					"internalType": "uint8",
					"name": "v",
					"type": "uint8"
				},
				{
					"internalType": "bytes32",
					"name": "r",
					"type": "bytes32"
				},
				{
					"internalType": "bytes32",
					"name": "s",
					"type": "bytes32"
				},
				{
					"internalType": "address",
					"name": "sender",
					"type": "address"
				},
				{
					"internalType": "string",
					"name": "sid",
					"type": "string"
				},
				{
					"internalType": "string",
					"name": "description",
					"type": "string"
				}
			],
			"name": "createRole",
			"outputs": [],
			"stateMutability": "nonpayable",
			"type": "function"
		},
		{
			"inputs": [
				{
					"internalType": "uint8",
					"name": "v",
					"type": "uint8"
				},
				{
					"internalType": "bytes32",
					"name": "r",
					"type": "bytes32"
				},
				{
					"internalType": "bytes32",
					"name": "s",
					"type": "bytes32"
				},
				{
					"internalType": "address",
					"name": "sender",
					"type": "address"
				},
				{
					"internalType": "string",
					"name": "to",
					"type": "string"
				},
				{
					"internalType": "string",
					"name": "hash",
					"type": "string"
				}
			],
			"name": "declineCustodyTransaction",
			"outputs": [],
			"stateMutability": "nonpayable",
			"type": "function"
		},
		{
			"inputs": [
				{
					"internalType": "uint8",
					"name": "v",
					"type": "uint8"
				},
				{
					"internalType": "bytes32",
					"name": "r",
					"type": "bytes32"
				},
				{
					"internalType": "bytes32",
					"name": "s",
					"type": "bytes32"
				},
				{
					"internalType": "address",
					"name": "sender",
					"type": "address"
				},
				{
					"internalType": "string",
					"name": "amount",
					"type": "string"
				},
				{
					"internalType": "string",
					"name": "to",
					"type": "string"
				}
			],
			"name": "delegate",
			"outputs": [],
			"stateMutability": "nonpayable",
			"type": "function"
		},
		{
			"inputs": [
				{
					"internalType": "uint8",
					"name": "v",
					"type": "uint8"
				},
				{
					"internalType": "bytes32",
					"name": "r",
					"type": "bytes32"
				},
				{
					"internalType": "bytes32",
					"name": "s",
					"type": "bytes32"
				},
				{
					"internalType": "address",
					"name": "sender",
					"type": "address"
				},
				{
					"internalType": "string[]",
					"name": "identityInfo",
					"type": "string[]"
				}
			],
			"name": "deleteIdentityRecord",
			"outputs": [],
			"stateMutability": "nonpayable",
			"type": "function"
		},
		{
			"inputs": [
				{
					"internalType": "uint8",
					"name": "v",
					"type": "uint8"
				},
				{
					"internalType": "bytes32",
					"name": "r",
					"type": "bytes32"
				},
				{
					"internalType": "bytes32",
					"name": "s",
					"type": "bytes32"
				},
				{
					"internalType": "address",
					"name": "sender",
					"type": "address"
				},
				{
					"internalType": "string",
					"name": "amount",
					"type": "string"
				},
				{
					"internalType": "string",
					"name": "name",
					"type": "string"
				}
			],
			"name": "depositSpendingPool",
			"outputs": [],
			"stateMutability": "nonpayable",
			"type": "function"
		},
		{
			"inputs": [
				{
					"internalType": "uint8",
					"name": "v",
					"type": "uint8"
				},
				{
					"internalType": "bytes32",
					"name": "r",
					"type": "bytes32"
				},
				{
					"internalType": "bytes32",
					"name": "s",
					"type": "bytes32"
				},
				{
					"internalType": "address",
					"name": "sender",
					"type": "address"
				},
				{
					"internalType": "string",
					"name": "oldKey",
					"type": "string"
				},
				{
					"internalType": "string",
					"name": "newKey",
					"type": "string"
				},
				{
					"internalType": "string",
					"name": "next",
					"type": "string"
				},
				{
					"internalType": "string",
					"name": "target",
					"type": "string"
				}
			],
			"name": "dropCustodyCustodians",
			"outputs": [],
			"stateMutability": "nonpayable",
			"type": "function"
		},
		{
			"inputs": [
				{
					"internalType": "uint8",
					"name": "v",
					"type": "uint8"
				},
				{
					"internalType": "bytes32",
					"name": "r",
					"type": "bytes32"
				},
				{
					"internalType": "bytes32",
					"name": "s",
					"type": "bytes32"
				},
				{
					"internalType": "address",
					"name": "sender",
					"type": "address"
				},
				{
					"internalType": "string",
					"name": "oldKey",
					"type": "string"
				},
				{
					"internalType": "string",
					"name": "newKey",
					"type": "string"
				},
				{
					"internalType": "string",
					"name": "next",
					"type": "string"
				},
				{
					"internalType": "string",
					"name": "target",
					"type": "string"
				}
			],
			"name": "dropCustodyWhiteList",
			"outputs": [],
			"stateMutability": "nonpayable",
			"type": "function"
		},
		{
			"inputs": [
				{
					"internalType": "uint8",
					"name": "v",
					"type": "uint8"
				},
				{
					"internalType": "bytes32",
					"name": "r",
					"type": "bytes32"
				},
				{
					"internalType": "bytes32",
					"name": "s",
					"type": "bytes32"
				},
				{
					"internalType": "address",
					"name": "sender",
					"type": "address"
				},
				{
					"internalType": "uint256",
					"name": "requestId",
					"type": "uint256"
				},
				{
					"internalType": "bool",
					"name": "isApprove",
					"type": "bool"
				}
			],
			"name": "handleIdentityRecordsVerifyRequest",
			"outputs": [],
			"stateMutability": "nonpayable",
			"type": "function"
		},
		{
			"inputs": [
				{
					"internalType": "uint8",
					"name": "v",
					"type": "uint8"
				},
				{
					"internalType": "bytes32",
					"name": "r",
					"type": "bytes32"
				},
				{
					"internalType": "bytes32",
					"name": "s",
					"type": "bytes32"
				},
				{
					"internalType": "address",
					"name": "sender",
					"type": "address"
				}
			],
			"name": "pause",
			"outputs": [],
			"stateMutability": "nonpayable",
			"type": "function"
		},
		{
			"inputs": [
				{
					"internalType": "uint8",
					"name": "v",
					"type": "uint8"
				},
				{
					"internalType": "bytes32",
					"name": "r",
					"type": "bytes32"
				},
				{
					"internalType": "bytes32",
					"name": "s",
					"type": "bytes32"
				},
				{
					"internalType": "address",
					"name": "sender",
					"type": "address"
				}
			],
			"name": "registerDelegator",
			"outputs": [],
			"stateMutability": "nonpayable",
			"type": "function"
		},
		{
			"inputs": [
				{
					"internalType": "uint8",
					"name": "v",
					"type": "uint8"
				},
				{
					"internalType": "bytes32",
					"name": "r",
					"type": "bytes32"
				},
				{
					"internalType": "bytes32",
					"name": "s",
					"type": "bytes32"
				},
				{
					"internalType": "address",
					"name": "sender",
					"type": "address"
				},
				{
					"internalType": "string",
					"name": "identityInfo",
					"type": "string"
				}
			],
			"name": "registerIdentityRecords",
			"outputs": [],
			"stateMutability": "nonpayable",
			"type": "function"
		},
		{
			"inputs": [
				{
					"internalType": "uint8",
					"name": "v",
					"type": "uint8"
				},
				{
					"internalType": "bytes32",
					"name": "r",
					"type": "bytes32"
				},
				{
					"internalType": "bytes32",
					"name": "s",
					"type": "bytes32"
				},
				{
					"internalType": "address",
					"name": "sender",
					"type": "address"
				},
				{
					"internalType": "string",
					"name": "name",
					"type": "string"
				}
			],
			"name": "registerSpendingPoolBeneficiary",
			"outputs": [],
			"stateMutability": "nonpayable",
			"type": "function"
		},
		{
			"inputs": [
				{
					"internalType": "uint8",
					"name": "v",
					"type": "uint8"
				},
				{
					"internalType": "bytes32",
					"name": "r",
					"type": "bytes32"
				},
				{
					"internalType": "bytes32",
					"name": "s",
					"type": "bytes32"
				},
				{
					"internalType": "address",
					"name": "sender",
					"type": "address"
				},
				{
					"internalType": "uint256",
					"name": "permission",
					"type": "uint256"
				},
				{
					"internalType": "string",
					"name": "roleIdentifier",
					"type": "string"
				}
			],
			"name": "removeBlacklistRolePermission",
			"outputs": [],
			"stateMutability": "nonpayable",
			"type": "function"
		},
		{
			"inputs": [
				{
					"internalType": "uint8",
					"name": "v",
					"type": "uint8"
				},
				{
					"internalType": "bytes32",
					"name": "r",
					"type": "bytes32"
				},
				{
					"internalType": "bytes32",
					"name": "s",
					"type": "bytes32"
				},
				{
					"internalType": "address",
					"name": "sender",
					"type": "address"
				},
				{
					"internalType": "string",
					"name": "newAddr",
					"type": "string"
				},
				{
					"internalType": "string",
					"name": "oldKey",
					"type": "string"
				},
				{
					"internalType": "string",
					"name": "newKey",
					"type": "string"
				},
				{
					"internalType": "string",
					"name": "next",
					"type": "string"
				},
				{
					"internalType": "string",
					"name": "target",
					"type": "string"
				}
			],
			"name": "removeFromCustodyCustodians",
			"outputs": [],
			"stateMutability": "nonpayable",
			"type": "function"
		},
		{
			"inputs": [
				{
					"internalType": "uint8",
					"name": "v",
					"type": "uint8"
				},
				{
					"internalType": "bytes32",
					"name": "r",
					"type": "bytes32"
				},
				{
					"internalType": "bytes32",
					"name": "s",
					"type": "bytes32"
				},
				{
					"internalType": "address",
					"name": "sender",
					"type": "address"
				},
				{
					"internalType": "string",
					"name": "newAddr",
					"type": "string"
				},
				{
					"internalType": "string",
					"name": "oldKey",
					"type": "string"
				},
				{
					"internalType": "string",
					"name": "newKey",
					"type": "string"
				},
				{
					"internalType": "string",
					"name": "next",
					"type": "string"
				},
				{
					"internalType": "string",
					"name": "target",
					"type": "string"
				}
			],
			"name": "removeFromCustodyWhiteList",
			"outputs": [],
			"stateMutability": "nonpayable",
			"type": "function"
		},
		{
			"inputs": [
				{
					"internalType": "uint8",
					"name": "v",
					"type": "uint8"
				},
				{
					"internalType": "bytes32",
					"name": "r",
					"type": "bytes32"
				},
				{
					"internalType": "bytes32",
					"name": "s",
					"type": "bytes32"
				},
				{
					"internalType": "address",
					"name": "sender",
					"type": "address"
				},
				{
					"internalType": "uint256",
					"name": "permission",
					"type": "uint256"
				},
				{
					"internalType": "string",
					"name": "roleIdentifier",
					"type": "string"
				}
			],
			"name": "removeWhitelistRolePermission",
			"outputs": [],
			"stateMutability": "nonpayable",
			"type": "function"
		},
		{
			"inputs": [
				{
					"internalType": "uint8",
					"name": "v",
					"type": "uint8"
				},
				{
					"internalType": "bytes32",
					"name": "r",
					"type": "bytes32"
				},
				{
					"internalType": "bytes32",
					"name": "s",
					"type": "bytes32"
				},
				{
					"internalType": "address",
					"name": "sender",
					"type": "address"
				},
				{
					"internalType": "string",
					"name": "tip",
					"type": "string"
				},
				{
					"internalType": "string",
					"name": "verifier",
					"type": "string"
				},
				{
					"internalType": "uint256[]",
					"name": "recordIds",
					"type": "uint256[]"
				}
			],
			"name": "requestIdentityRecordsVerify",
			"outputs": [],
			"stateMutability": "nonpayable",
			"type": "function"
		},
		{
			"inputs": [
				{
					"internalType": "uint8",
					"name": "v",
					"type": "uint8"
				},
				{
					"internalType": "bytes32",
					"name": "r",
					"type": "bytes32"
				},
				{
					"internalType": "bytes32",
					"name": "s",
					"type": "bytes32"
				},
				{
					"internalType": "address",
					"name": "sender",
					"type": "address"
				},
				{
					"internalType": "bool",
					"name": "allDenom",
					"type": "bool"
				},
				{
					"internalType": "string[]",
					"name": "denoms",
					"type": "string[]"
				}
			],
			"name": "setCompoundInfo",
			"outputs": [],
			"stateMutability": "nonpayable",
			"type": "function"
		},
		{
			"inputs": [
				{
					"internalType": "uint8",
					"name": "v",
					"type": "uint8"
				},
				{
					"internalType": "bytes32",
					"name": "r",
					"type": "bytes32"
				},
				{
					"internalType": "bytes32",
					"name": "s",
					"type": "bytes32"
				},
				{
					"internalType": "address",
					"name": "sender",
					"type": "address"
				},
				{
					"internalType": "uint256",
					"name": "executionFee",
					"type": "uint256"
				},
				{
					"internalType": "uint256",
					"name": "failureFee",
					"type": "uint256"
				},
				{
					"internalType": "uint256",
					"name": "timeout",
					"type": "uint256"
				},
				{
					"internalType": "uint256",
					"name": "defaultParams",
					"type": "uint256"
				},
				{
					"internalType": "string",
					"name": "transactionType",
					"type": "string"
				}
			],
			"name": "setExecutionFee",
			"outputs": [],
			"stateMutability": "nonpayable",
			"type": "function"
		},
		{
			"inputs": [
				{
					"internalType": "uint8",
					"name": "v",
					"type": "uint8"
				},
				{
					"internalType": "bytes32",
					"name": "r",
					"type": "bytes32"
				},
				{
					"internalType": "bytes32",
					"name": "s",
					"type": "bytes32"
				},
				{
					"internalType": "address",
					"name": "sender",
					"type": "address"
				},
				{
					"internalType": "bool[]",
					"name": "boolList",
					"type": "bool[]"
				},
				{
					"internalType": "uint256[]",
					"name": "uintList",
					"type": "uint256[]"
				},
				{
					"internalType": "string[]",
					"name": "strList",
					"type": "string[]"
				},
				{
					"internalType": "string[]",
					"name": "legacyDecList",
					"type": "string[]"
				}
			],
			"name": "setNetworkProperties",
			"outputs": [],
			"stateMutability": "nonpayable",
			"type": "function"
		},
		{
			"inputs": [
				{
					"internalType": "uint8",
					"name": "v",
					"type": "uint8"
				},
				{
					"internalType": "bytes32",
					"name": "r",
					"type": "bytes32"
				},
				{
					"internalType": "bytes32",
					"name": "s",
					"type": "bytes32"
				},
				{
					"internalType": "address",
					"name": "sender",
					"type": "address"
				},
				{
					"internalType": "int256",
					"name": "height",
					"type": "int256"
				},
				{
					"internalType": "int256",
					"name": "power",
					"type": "int256"
				},
				{
					"internalType": "int256",
					"name": "unixTime",
					"type": "int256"
				},
				{
					"internalType": "string",
					"name": "consensusAddr",
					"type": "string"
				}
			],
			"name": "submitEvidence",
			"outputs": [],
			"stateMutability": "nonpayable",
			"type": "function"
		},
		{
			"inputs": [
				{
					"internalType": "uint8",
					"name": "v",
					"type": "uint8"
				},
				{
					"internalType": "bytes32",
					"name": "r",
					"type": "bytes32"
				},
				{
					"internalType": "bytes32",
					"name": "s",
					"type": "bytes32"
				},
				{
					"internalType": "address",
					"name": "sender",
					"type": "address"
				},
				{
					"internalType": "uint256",
					"name": "roleid",
					"type": "uint256"
				},
				{
					"internalType": "string",
					"name": "controller",
					"type": "string"
				}
			],
			"name": "unassignRole",
			"outputs": [],
			"stateMutability": "nonpayable",
			"type": "function"
		},
		{
			"inputs": [
				{
					"internalType": "uint8",
					"name": "v",
					"type": "uint8"
				},
				{
					"internalType": "bytes32",
					"name": "r",
					"type": "bytes32"
				},
				{
					"internalType": "bytes32",
					"name": "s",
					"type": "bytes32"
				},
				{
					"internalType": "address",
					"name": "sender",
					"type": "address"
				},
				{
					"internalType": "string",
					"name": "amount",
					"type": "string"
				},
				{
					"internalType": "string",
					"name": "to",
					"type": "string"
				}
			],
			"name": "undelegate",
			"outputs": [],
			"stateMutability": "nonpayable",
			"type": "function"
		},
		{
			"inputs": [
				{
					"internalType": "uint8",
					"name": "v",
					"type": "uint8"
				},
				{
					"internalType": "bytes32",
					"name": "r",
					"type": "bytes32"
				},
				{
					"internalType": "bytes32",
					"name": "s",
					"type": "bytes32"
				},
				{
					"internalType": "address",
					"name": "sender",
					"type": "address"
				}
			],
			"name": "unpause",
			"outputs": [],
			"stateMutability": "nonpayable",
			"type": "function"
		},
		{
			"inputs": [
				{
					"internalType": "uint8",
					"name": "v",
					"type": "uint8"
				},
				{
					"internalType": "bytes32",
					"name": "r",
					"type": "bytes32"
				},
				{
					"internalType": "bytes32",
					"name": "s",
					"type": "bytes32"
				},
				{
					"internalType": "address",
					"name": "sender",
					"type": "address"
				},
				{
					"internalType": "bool",
					"name": "enabled",
					"type": "bool"
				},
				{
					"internalType": "string",
					"name": "validator",
					"type": "string"
				},
				{
					"internalType": "string",
					"name": "commission",
					"type": "string"
				}
			],
			"name": "upsertStakingPool",
			"outputs": [],
			"stateMutability": "nonpayable",
			"type": "function"
		},
		{
			"inputs": [
				{
					"internalType": "uint8",
					"name": "v",
					"type": "uint8"
				},
				{
					"internalType": "bytes32",
					"name": "r",
					"type": "bytes32"
				},
				{
					"internalType": "bytes32",
					"name": "s",
					"type": "bytes32"
				},
				{
					"internalType": "address",
					"name": "sender",
					"type": "address"
				},
				{
					"internalType": "bool",
					"name": "invalidated",
					"type": "bool"
				},
				{
					"internalType": "uint32",
					"name": "decimals",
					"type": "uint32"
				},
				{
					"internalType": "string",
					"name": "symbol",
					"type": "string"
				},
				{
					"internalType": "string",
					"name": "name",
					"type": "string"
				},
				{
					"internalType": "string",
					"name": "icon",
					"type": "string"
				},
				{
					"internalType": "string[]",
					"name": "denoms",
					"type": "string[]"
				}
			],
			"name": "upsertTokenAlias",
			"outputs": [],
			"stateMutability": "nonpayable",
			"type": "function"
		},
		{
			"inputs": [
				{
					"internalType": "uint8",
					"name": "v",
					"type": "uint8"
				},
				{
					"internalType": "bytes32",
					"name": "r",
					"type": "bytes32"
				},
				{
					"internalType": "bytes32",
					"name": "s",
					"type": "bytes32"
				},
				{
					"internalType": "address",
					"name": "sender",
					"type": "address"
				},
				{
					"internalType": "bool",
					"name": "feePayments",
					"type": "bool"
				},
				{
					"internalType": "bool",
					"name": "stakeToken",
					"type": "bool"
				},
				{
					"internalType": "bool",
					"name": "invalidated",
					"type": "bool"
				},
				{
					"internalType": "string",
					"name": "denom",
					"type": "string"
				},
				{
					"internalType": "string",
					"name": "rate",
					"type": "string"
				},
				{
					"internalType": "string",
					"name": "stakeCap",
					"type": "string"
				},
				{
					"internalType": "string",
					"name": "stakeMin",
					"type": "string"
				}
			],
			"name": "upsertTokenRate",
			"outputs": [],
			"stateMutability": "nonpayable",
			"type": "function"
		},
		{
			"inputs": [
				{
					"internalType": "uint8",
					"name": "v",
					"type": "uint8"
				},
				{
					"internalType": "bytes32",
					"name": "r",
					"type": "bytes32"
				},
				{
					"internalType": "bytes32",
					"name": "s",
					"type": "bytes32"
				},
				{
					"internalType": "address",
					"name": "sender",
					"type": "address"
				},
				{
					"internalType": "uint256",
					"name": "proposalID",
					"type": "uint256"
				},
				{
					"internalType": "uint256",
					"name": "option",
					"type": "uint256"
				},
				{
					"internalType": "string",
					"name": "slash",
					"type": "string"
				}
			],
			"name": "voteProposal",
			"outputs": [],
			"stateMutability": "nonpayable",
			"type": "function"
		},
		{
			"inputs": [
				{
					"internalType": "uint8",
					"name": "v",
					"type": "uint8"
				},
				{
					"internalType": "bytes32",
					"name": "r",
					"type": "bytes32"
				},
				{
					"internalType": "bytes32",
					"name": "s",
					"type": "bytes32"
				},
				{
					"internalType": "address",
					"name": "sender",
					"type": "address"
				},
				{
					"internalType": "uint256",
					"name": "permission",
					"type": "uint256"
				},
				{
					"internalType": "string",
					"name": "controlledAddr",
					"type": "string"
				}
			],
			"name": "whitelistPermissions",
			"outputs": [],
			"stateMutability": "nonpayable",
			"type": "function"
		},
		{
			"inputs": [
				{
					"internalType": "uint8",
					"name": "v",
					"type": "uint8"
				},
				{
					"internalType": "bytes32",
					"name": "r",
					"type": "bytes32"
				},
				{
					"internalType": "bytes32",
					"name": "s",
					"type": "bytes32"
				},
				{
					"internalType": "address",
					"name": "sender",
					"type": "address"
				},
				{
					"internalType": "uint256",
					"name": "permission",
					"type": "uint256"
				},
				{
					"internalType": "string",
					"name": "roleIdentifier",
					"type": "string"
				}
			],
			"name": "whitelistRolePermission",
			"outputs": [],
			"stateMutability": "nonpayable",
			"type": "function"
		}
	]
}